{
  "_format": "hh-sol-artifact-1",
  "contractName": "MVerFactory",
  "sourceName": "contracts/MVer.sol",
  "abi": [
    {
      "inputs": [
        {
          "internalType": "address",
          "name": "_originalContract",
          "type": "address"
        }
      ],
      "stateMutability": "nonpayable",
      "type": "constructor"
    },
    {
      "anonymous": false,
      "inputs": [
        {
          "indexed": true,
          "internalType": "uint256",
          "name": "originalTokenId",
          "type": "uint256"
        },
        {
          "indexed": true,
          "internalType": "address",
          "name": "creator",
          "type": "address"
        },
        {
          "indexed": false,
          "internalType": "address",
          "name": "collectibleContract",
          "type": "address"
        }
      ],
      "name": "ContentCreated",
      "type": "event"
    },
    {
      "inputs": [
        {
          "internalType": "string",
          "name": "title",
          "type": "string"
        },
        {
          "internalType": "string",
          "name": "genre",
          "type": "string"
        },
        {
          "internalType": "string",
          "name": "originalUri",
          "type": "string"
        },
        {
          "internalType": "string",
          "name": "collectibleUri",
          "type": "string"
        },
        {
          "internalType": "uint256",
          "name": "price",
          "type": "uint256"
        },
        {
          "internalType": "uint256",
          "name": "maxSupply",
          "type": "uint256"
        }
      ],
      "name": "createContent",
      "outputs": [
        {
          "internalType": "uint256",
          "name": "",
          "type": "uint256"
        },
        {
          "internalType": "address",
          "name": "",
          "type": "address"
        }
      ],
      "stateMutability": "nonpayable",
      "type": "function"
    },
    {
      "inputs": [],
      "name": "originalContract",
      "outputs": [
        {
          "internalType": "contract MVerOriginal",
          "name": "",
          "type": "address"
        }
      ],
      "stateMutability": "view",
      "type": "function"
    }
  ],
  "bytecode": "0x60a060405234801561001057600080fd5b5060405161353c38038061353c833981810160405281019061003291906100cf565b8073ffffffffffffffffffffffffffffffffffffffff1660808173ffffffffffffffffffffffffffffffffffffffff1681525050506100fc565b600080fd5b600073ffffffffffffffffffffffffffffffffffffffff82169050919050565b600061009c82610071565b9050919050565b6100ac81610091565b81146100b757600080fd5b50565b6000815190506100c9816100a3565b92915050565b6000602082840312156100e5576100e461006c565b5b60006100f3848285016100ba565b91505092915050565b6080516134196101236000396000818160910152818160f401526101fa01526134196000f3fe608060405234801561001057600080fd5b50600436106100365760003560e01c80635c4fb6ef1461003b578063e2c345e21461006c575b600080fd5b610055600480360381019061005091906103b9565b61008a565b604051610063929190610506565b60405180910390f35b6100746101f8565b604051610081919061058e565b60405180910390f35b60008060007f000000000000000000000000000000000000000000000000000000000000000060003387878a6040516100c29061021c565b6100d196959493929190610663565b604051809103906000f0801580156100ed573d6000803e3d6000fd5b50905060007f000000000000000000000000000000000000000000000000000000000000000073ffffffffffffffffffffffffffffffffffffffff1663d3523ede8b8b8b866040518563ffffffff1660e01b815260040161015194939291906106cb565b6020604051808303816000875af1158015610170573d6000803e3d6000fd5b505050506040513d601f19601f82011682018060405250810190610194919061073a565b90503373ffffffffffffffffffffffffffffffffffffffff16817f658c02dd5bf8840b920f6e54f84e71cf9bc8730631b4968231ef0e6f2a91cb36846040516101dd9190610767565b60405180910390a38082935093505050965096945050505050565b7f000000000000000000000000000000000000000000000000000000000000000081565b612c618061078383390190565b6000604051905090565b600080fd5b600080fd5b600080fd5b600080fd5b6000601f19601f8301169050919050565b7f4e487b7100000000000000000000000000000000000000000000000000000000600052604160045260246000fd5b61029082610247565b810181811067ffffffffffffffff821117156102af576102ae610258565b5b80604052505050565b60006102c2610229565b90506102ce8282610287565b919050565b600067ffffffffffffffff8211156102ee576102ed610258565b5b6102f782610247565b9050602081019050919050565b82818337600083830152505050565b6000610326610321846102d3565b6102b8565b90508281526020810184848401111561034257610341610242565b5b61034d848285610304565b509392505050565b600082601f83011261036a5761036961023d565b5b813561037a848260208601610313565b91505092915050565b6000819050919050565b61039681610383565b81146103a157600080fd5b50565b6000813590506103b38161038d565b92915050565b60008060008060008060c087890312156103d6576103d5610233565b5b600087013567ffffffffffffffff8111156103f4576103f3610238565b5b61040089828a01610355565b965050602087013567ffffffffffffffff81111561042157610420610238565b5b61042d89828a01610355565b955050604087013567ffffffffffffffff81111561044e5761044d610238565b5b61045a89828a01610355565b945050606087013567ffffffffffffffff81111561047b5761047a610238565b5b61048789828a01610355565b935050608061049889828a016103a4565b92505060a06104a989828a016103a4565b9150509295509295509295565b6104bf81610383565b82525050565b600073ffffffffffffffffffffffffffffffffffffffff82169050919050565b60006104f0826104c5565b9050919050565b610500816104e5565b82525050565b600060408201905061051b60008301856104b6565b61052860208301846104f7565b9392505050565b6000819050919050565b600061055461054f61054a846104c5565b61052f565b6104c5565b9050919050565b600061056682610539565b9050919050565b60006105788261055b565b9050919050565b6105888161056d565b82525050565b60006020820190506105a3600083018461057f565b92915050565b6000819050919050565b60006105ce6105c96105c4846105a9565b61052f565b610383565b9050919050565b6105de816105b3565b82525050565b600081519050919050565b600082825260208201905092915050565b60005b8381101561061e578082015181840152602081019050610603565b60008484015250505050565b6000610635826105e4565b61063f81856105ef565b935061064f818560208601610600565b61065881610247565b840191505092915050565b600060c08201905061067860008301896104f7565b61068560208301886105d5565b61069260408301876104f7565b61069f60608301866104b6565b6106ac60808301856104b6565b81810360a08301526106be818461062a565b9050979650505050505050565b600060808201905081810360008301526106e5818761062a565b905081810360208301526106f9818661062a565b9050818103604083015261070d818561062a565b905061071c60608301846104f7565b95945050505050565b6000815190506107348161038d565b92915050565b6000602082840312156107505761074f610233565b5b600061075e84828501610725565b91505092915050565b600060208201905061077c60008301846104f7565b9291505056fe60e060405234801561001057600080fd5b50604051612c61380380612c61833981810160405281019061003291906102e8565b80610042816100cc60201b60201c565b508573ffffffffffffffffffffffffffffffffffffffff1660a08173ffffffffffffffffffffffffffffffffffffffff168152505084608081815250508373ffffffffffffffffffffffffffffffffffffffff1660c08173ffffffffffffffffffffffffffffffffffffffff1681525050826003819055508160048190555050505050505061067a565b80600290816100db91906105a8565b5050565b6000604051905090565b600080fd5b600080fd5b600073ffffffffffffffffffffffffffffffffffffffff82169050919050565b600061011e826100f3565b9050919050565b61012e81610113565b811461013957600080fd5b50565b60008151905061014b81610125565b92915050565b6000819050919050565b61016481610151565b811461016f57600080fd5b50565b6000815190506101818161015b565b92915050565b600080fd5b600080fd5b6000601f19601f8301169050919050565b7f4e487b7100000000000000000000000000000000000000000000000000000000600052604160045260246000fd5b6101da82610191565b810181811067ffffffffffffffff821117156101f9576101f86101a2565b5b80604052505050565b600061020c6100df565b905061021882826101d1565b919050565b600067ffffffffffffffff821115610238576102376101a2565b5b61024182610191565b9050602081019050919050565b60005b8381101561026c578082015181840152602081019050610251565b60008484015250505050565b600061028b6102868461021d565b610202565b9050828152602081018484840111156102a7576102a661018c565b5b6102b284828561024e565b509392505050565b600082601f8301126102cf576102ce610187565b5b81516102df848260208601610278565b91505092915050565b60008060008060008060c08789031215610305576103046100e9565b5b600061031389828a0161013c565b965050602061032489828a01610172565b955050604061033589828a0161013c565b945050606061034689828a01610172565b935050608061035789828a01610172565b92505060a087015167ffffffffffffffff811115610378576103776100ee565b5b61038489828a016102ba565b9150509295509295509295565b600081519050919050565b7f4e487b7100000000000000000000000000000000000000000000000000000000600052602260045260246000fd5b600060028204905060018216806103e357607f821691505b6020821081036103f6576103f561039c565b5b50919050565b60008190508160005260206000209050919050565b60006020601f8301049050919050565b600082821b905092915050565b60006008830261045e7fffffffffffffffffffffffffffffffffffffffffffffffffffffffffffffffff82610421565b6104688683610421565b95508019841693508086168417925050509392505050565b6000819050919050565b60006104a56104a061049b84610151565b610480565b610151565b9050919050565b6000819050919050565b6104bf8361048a565b6104d36104cb826104ac565b84845461042e565b825550505050565b600090565b6104e86104db565b6104f38184846104b6565b505050565b5b818110156105175761050c6000826104e0565b6001810190506104f9565b5050565b601f82111561055c5761052d816103fc565b61053684610411565b81016020851015610545578190505b61055961055185610411565b8301826104f8565b50505b505050565b600082821c905092915050565b600061057f60001984600802610561565b1980831691505092915050565b6000610598838361056e565b9150826002028217905092915050565b6105b182610391565b67ffffffffffffffff8111156105ca576105c96101a2565b5b6105d482546103cb565b6105df82828561051b565b600060209050601f8311600181146106125760008415610600578287015190505b61060a858261058c565b865550610672565b601f198416610620866103fc565b60005b8281101561064857848901518255600182019150602085019450602081019050610623565b868310156106655784890151610661601f89168261056e565b8355505b6001600288020188555050505b505050505050565b60805160a05160c0516125b16106b0600039600081816104f40152610847015260006109a00152600061077f01526125b16000f3fe6080604052600436106100e75760003560e01c8063a035b1fe1161008a578063d5abeb0111610059578063d5abeb01146102fa578063e2c345e214610325578063e985e9c514610350578063f242432a1461038d576100e7565b8063a035b1fe1461025f578063a22cb4651461028a578063c17915df146102b3578063ce3f865f146102de576100e7565b80630e89341c116100c65780630e89341c1461019157806318160ddd146101ce5780632eb2c2d6146101f95780634e1273f414610222576100e7565b8062fdd58e146100ec57806301ffc9a71461012957806302d05d3f14610166575b600080fd5b3480156100f857600080fd5b50610113600480360381019061010e919061183e565b6103b6565b604051610120919061188d565b60405180910390f35b34801561013557600080fd5b50610150600480360381019061014b9190611900565b610410565b60405161015d9190611948565b60405180910390f35b34801561017257600080fd5b5061017b6104f2565b6040516101889190611972565b60405180910390f35b34801561019d57600080fd5b506101b860048036038101906101b3919061198d565b610516565b6040516101c59190611a4a565b60405180910390f35b3480156101da57600080fd5b506101e36105aa565b6040516101f0919061188d565b60405180910390f35b34801561020557600080fd5b50610220600480360381019061021b9190611c69565b6105b0565b005b34801561022e57600080fd5b5061024960048036038101906102449190611dfb565b610658565b6040516102569190611f31565b60405180910390f35b34801561026b57600080fd5b50610274610761565b604051610281919061188d565b60405180910390f35b34801561029657600080fd5b506102b160048036038101906102ac9190611f7f565b610767565b005b3480156102bf57600080fd5b506102c861077d565b6040516102d5919061188d565b60405180910390f35b6102f860048036038101906102f3919061198d565b6107a1565b005b34801561030657600080fd5b5061030f610998565b60405161031c919061188d565b60405180910390f35b34801561033157600080fd5b5061033a61099e565b6040516103479190611972565b60405180910390f35b34801561035c57600080fd5b5061037760048036038101906103729190611fbf565b6109c2565b6040516103849190611948565b60405180910390f35b34801561039957600080fd5b506103b460048036038101906103af9190611fff565b610a56565b005b600080600083815260200190815260200160002060008473ffffffffffffffffffffffffffffffffffffffff1673ffffffffffffffffffffffffffffffffffffffff16815260200190815260200160002054905092915050565b60007fd9b67a26000000000000000000000000000000000000000000000000000000007bffffffffffffffffffffffffffffffffffffffffffffffffffffffff1916827bffffffffffffffffffffffffffffffffffffffffffffffffffffffff191614806104db57507f0e89341c000000000000000000000000000000000000000000000000000000007bffffffffffffffffffffffffffffffffffffffffffffffffffffffff1916827bffffffffffffffffffffffffffffffffffffffffffffffffffffffff1916145b806104eb57506104ea82610afe565b5b9050919050565b7f000000000000000000000000000000000000000000000000000000000000000081565b606060028054610525906120c5565b80601f0160208091040260200160405190810160405280929190818152602001828054610551906120c5565b801561059e5780601f106105735761010080835404028352916020019161059e565b820191906000526020600020905b81548152906001019060200180831161058157829003601f168201915b50505050509050919050565b60055481565b60006105ba610b68565b90508073ffffffffffffffffffffffffffffffffffffffff168673ffffffffffffffffffffffffffffffffffffffff16141580156105ff57506105fd86826109c2565b155b156106435780866040517fe237d92200000000000000000000000000000000000000000000000000000000815260040161063a9291906120f6565b60405180910390fd5b6106508686868686610b70565b505050505050565b606081518351146106a457815183516040517f5b05999100000000000000000000000000000000000000000000000000000000815260040161069b92919061211f565b60405180910390fd5b6000835167ffffffffffffffff8111156106c1576106c0611a71565b5b6040519080825280602002602001820160405280156106ef5781602001602082028036833780820191505090505b50905060005b84518110156107565761072c6107148287610c6890919063ffffffff16565b6107278387610c7c90919063ffffffff16565b6103b6565b82828151811061073f5761073e612148565b5b6020026020010181815250508060010190506106f5565b508091505092915050565b60035481565b610779610772610b68565b8383610c90565b5050565b7f000000000000000000000000000000000000000000000000000000000000000081565b600454816005546107b291906121a6565b11156107f3576040517f08c379a00000000000000000000000000000000000000000000000000000000081526004016107ea90612226565b60405180910390fd5b806003546108019190612246565b341015610843576040517f08c379a000000000000000000000000000000000000000000000000000000000815260040161083a906122d4565b60405180910390fd5b60007f000000000000000000000000000000000000000000000000000000000000000073ffffffffffffffffffffffffffffffffffffffff163460405161088990612325565b60006040518083038185875af1925050503d80600081146108c6576040519150601f19603f3d011682016040523d82523d6000602084013e6108cb565b606091505b505090508061090f576040517f08c379a000000000000000000000000000000000000000000000000000000000815260040161090690612386565b60405180910390fd5b61092b3360008460405180602001604052806000815250610e00565b816005600082825461093d91906121a6565b925050819055503373ffffffffffffffffffffffffffffffffffffffff167f8f0c3d4726e2d22ccf850efced91f2d0c1bea40229449223d795a6cff3276236833460405161098c92919061211f565b60405180910390a25050565b60045481565b7f000000000000000000000000000000000000000000000000000000000000000081565b6000600160008473ffffffffffffffffffffffffffffffffffffffff1673ffffffffffffffffffffffffffffffffffffffff16815260200190815260200160002060008373ffffffffffffffffffffffffffffffffffffffff1673ffffffffffffffffffffffffffffffffffffffff16815260200190815260200160002060009054906101000a900460ff16905092915050565b6000610a60610b68565b90508073ffffffffffffffffffffffffffffffffffffffff168673ffffffffffffffffffffffffffffffffffffffff1614158015610aa55750610aa386826109c2565b155b15610ae95780866040517fe237d922000000000000000000000000000000000000000000000000000000008152600401610ae09291906120f6565b60405180910390fd5b610af68686868686610e99565b505050505050565b60007f01ffc9a7000000000000000000000000000000000000000000000000000000007bffffffffffffffffffffffffffffffffffffffffffffffffffffffff1916827bffffffffffffffffffffffffffffffffffffffffffffffffffffffff1916149050919050565b600033905090565b600073ffffffffffffffffffffffffffffffffffffffff168473ffffffffffffffffffffffffffffffffffffffff1603610be25760006040517f57f447ce000000000000000000000000000000000000000000000000000000008152600401610bd99190611972565b60405180910390fd5b600073ffffffffffffffffffffffffffffffffffffffff168573ffffffffffffffffffffffffffffffffffffffff1603610c545760006040517f01a83514000000000000000000000000000000000000000000000000000000008152600401610c4b9190611972565b60405180910390fd5b610c618585858585610fa4565b5050505050565b600060208202602084010151905092915050565b600060208202602084010151905092915050565b600073ffffffffffffffffffffffffffffffffffffffff168273ffffffffffffffffffffffffffffffffffffffff1603610d025760006040517fced3e100000000000000000000000000000000000000000000000000000000008152600401610cf99190611972565b60405180910390fd5b80600160008573ffffffffffffffffffffffffffffffffffffffff1673ffffffffffffffffffffffffffffffffffffffff16815260200190815260200160002060008473ffffffffffffffffffffffffffffffffffffffff1673ffffffffffffffffffffffffffffffffffffffff16815260200190815260200160002060006101000a81548160ff0219169083151502179055508173ffffffffffffffffffffffffffffffffffffffff168373ffffffffffffffffffffffffffffffffffffffff167f17307eab39ab6107e8899845ad3d59bd9653f200f220920489ca2b5937696c3183604051610df39190611948565b60405180910390a3505050565b600073ffffffffffffffffffffffffffffffffffffffff168473ffffffffffffffffffffffffffffffffffffffff1603610e725760006040517f57f447ce000000000000000000000000000000000000000000000000000000008152600401610e699190611972565b60405180910390fd5b600080610e7f8585611056565b91509150610e91600087848487610fa4565b505050505050565b600073ffffffffffffffffffffffffffffffffffffffff168473ffffffffffffffffffffffffffffffffffffffff1603610f0b5760006040517f57f447ce000000000000000000000000000000000000000000000000000000008152600401610f029190611972565b60405180910390fd5b600073ffffffffffffffffffffffffffffffffffffffff168573ffffffffffffffffffffffffffffffffffffffff1603610f7d5760006040517f01a83514000000000000000000000000000000000000000000000000000000008152600401610f749190611972565b60405180910390fd5b600080610f8a8585611056565b91509150610f9b8787848487610fa4565b50505050505050565b610fb085858585611086565b600073ffffffffffffffffffffffffffffffffffffffff168473ffffffffffffffffffffffffffffffffffffffff161461104f576000610fee610b68565b9050600184510361103e57600061100f600086610c7c90919063ffffffff16565b90506000611027600086610c7c90919063ffffffff16565b905061103783898985858961142e565b505061104d565b61104c8187878787876115e2565b5b505b5050505050565b60608060405191506001825283602083015260408201905060018152826020820152604081016040529250929050565b80518251146110d057815181516040517f5b0599910000000000000000000000000000000000000000000000000000000081526004016110c792919061211f565b60405180910390fd5b60006110da610b68565b905060005b83518110156112e95760006110fd8286610c7c90919063ffffffff16565b905060006111148386610c7c90919063ffffffff16565b9050600073ffffffffffffffffffffffffffffffffffffffff168873ffffffffffffffffffffffffffffffffffffffff161461124157600080600084815260200190815260200160002060008a73ffffffffffffffffffffffffffffffffffffffff1673ffffffffffffffffffffffffffffffffffffffff168152602001908152602001600020549050818110156111e957888183856040517f03dee4c50000000000000000000000000000000000000000000000000000000081526004016111e094939291906123a6565b60405180910390fd5b81810360008085815260200190815260200160002060008b73ffffffffffffffffffffffffffffffffffffffff1673ffffffffffffffffffffffffffffffffffffffff16815260200190815260200160002081905550505b600073ffffffffffffffffffffffffffffffffffffffff168773ffffffffffffffffffffffffffffffffffffffff16146112dc578060008084815260200190815260200160002060008973ffffffffffffffffffffffffffffffffffffffff1673ffffffffffffffffffffffffffffffffffffffff16815260200190815260200160002060008282546112d491906121a6565b925050819055505b50508060010190506110df565b5060018351036113a8576000611309600085610c7c90919063ffffffff16565b90506000611321600085610c7c90919063ffffffff16565b90508573ffffffffffffffffffffffffffffffffffffffff168773ffffffffffffffffffffffffffffffffffffffff168473ffffffffffffffffffffffffffffffffffffffff167fc3d58168c5ae7397731d063d5bbf3d657854427343f4c083240f7aacaa2d0f62858560405161139992919061211f565b60405180910390a45050611427565b8373ffffffffffffffffffffffffffffffffffffffff168573ffffffffffffffffffffffffffffffffffffffff168273ffffffffffffffffffffffffffffffffffffffff167f4a39dc06d4c0dbc64b70af90fd698a233a518aa5d07e595d983b8c0526c8f7fb868660405161141e9291906123eb565b60405180910390a45b5050505050565b60008473ffffffffffffffffffffffffffffffffffffffff163b11156115da578373ffffffffffffffffffffffffffffffffffffffff1663f23a6e6187878686866040518663ffffffff1660e01b815260040161148f959493929190612477565b6020604051808303816000875af19250505080156114cb57506040513d601f19601f820116820180604052508101906114c891906124e6565b60015b61154f573d80600081146114fb576040519150601f19603f3d011682016040523d82523d6000602084013e611500565b606091505b50600081510361154757846040517f57f447ce00000000000000000000000000000000000000000000000000000000815260040161153e9190611972565b60405180910390fd5b805181602001fd5b63f23a6e6160e01b7bffffffffffffffffffffffffffffffffffffffffffffffffffffffff1916817bffffffffffffffffffffffffffffffffffffffffffffffffffffffff1916146115d857846040517f57f447ce0000000000000000000000000000000000000000000000000000000081526004016115cf9190611972565b60405180910390fd5b505b505050505050565b60008473ffffffffffffffffffffffffffffffffffffffff163b111561178e578373ffffffffffffffffffffffffffffffffffffffff1663bc197c8187878686866040518663ffffffff1660e01b8152600401611643959493929190612513565b6020604051808303816000875af192505050801561167f57506040513d601f19601f8201168201806040525081019061167c91906124e6565b60015b611703573d80600081146116af576040519150601f19603f3d011682016040523d82523d6000602084013e6116b4565b606091505b5060008151036116fb57846040517f57f447ce0000000000000000000000000000000000000000000000000000000081526004016116f29190611972565b60405180910390fd5b805181602001fd5b63bc197c8160e01b7bffffffffffffffffffffffffffffffffffffffffffffffffffffffff1916817bffffffffffffffffffffffffffffffffffffffffffffffffffffffff19161461178c57846040517f57f447ce0000000000000000000000000000000000000000000000000000000081526004016117839190611972565b60405180910390fd5b505b505050505050565b6000604051905090565b600080fd5b600080fd5b600073ffffffffffffffffffffffffffffffffffffffff82169050919050565b60006117d5826117aa565b9050919050565b6117e5816117ca565b81146117f057600080fd5b50565b600081359050611802816117dc565b92915050565b6000819050919050565b61181b81611808565b811461182657600080fd5b50565b60008135905061183881611812565b92915050565b60008060408385031215611855576118546117a0565b5b6000611863858286016117f3565b925050602061187485828601611829565b9150509250929050565b61188781611808565b82525050565b60006020820190506118a2600083018461187e565b92915050565b60007fffffffff0000000000000000000000000000000000000000000000000000000082169050919050565b6118dd816118a8565b81146118e857600080fd5b50565b6000813590506118fa816118d4565b92915050565b600060208284031215611916576119156117a0565b5b6000611924848285016118eb565b91505092915050565b60008115159050919050565b6119428161192d565b82525050565b600060208201905061195d6000830184611939565b92915050565b61196c816117ca565b82525050565b60006020820190506119876000830184611963565b92915050565b6000602082840312156119a3576119a26117a0565b5b60006119b184828501611829565b91505092915050565b600081519050919050565b600082825260208201905092915050565b60005b838110156119f45780820151818401526020810190506119d9565b60008484015250505050565b6000601f19601f8301169050919050565b6000611a1c826119ba565b611a2681856119c5565b9350611a368185602086016119d6565b611a3f81611a00565b840191505092915050565b60006020820190508181036000830152611a648184611a11565b905092915050565b600080fd5b7f4e487b7100000000000000000000000000000000000000000000000000000000600052604160045260246000fd5b611aa982611a00565b810181811067ffffffffffffffff82111715611ac857611ac7611a71565b5b80604052505050565b6000611adb611796565b9050611ae78282611aa0565b919050565b600067ffffffffffffffff821115611b0757611b06611a71565b5b602082029050602081019050919050565b600080fd5b6000611b30611b2b84611aec565b611ad1565b90508083825260208201905060208402830185811115611b5357611b52611b18565b5b835b81811015611b7c5780611b688882611829565b845260208401935050602081019050611b55565b5050509392505050565b600082601f830112611b9b57611b9a611a6c565b5b8135611bab848260208601611b1d565b91505092915050565b600080fd5b600067ffffffffffffffff821115611bd457611bd3611a71565b5b611bdd82611a00565b9050602081019050919050565b82818337600083830152505050565b6000611c0c611c0784611bb9565b611ad1565b905082815260208101848484011115611c2857611c27611bb4565b5b611c33848285611bea565b509392505050565b600082601f830112611c5057611c4f611a6c565b5b8135611c60848260208601611bf9565b91505092915050565b600080600080600060a08688031215611c8557611c846117a0565b5b6000611c93888289016117f3565b9550506020611ca4888289016117f3565b945050604086013567ffffffffffffffff811115611cc557611cc46117a5565b5b611cd188828901611b86565b935050606086013567ffffffffffffffff811115611cf257611cf16117a5565b5b611cfe88828901611b86565b925050608086013567ffffffffffffffff811115611d1f57611d1e6117a5565b5b611d2b88828901611c3b565b9150509295509295909350565b600067ffffffffffffffff821115611d5357611d52611a71565b5b602082029050602081019050919050565b6000611d77611d7284611d38565b611ad1565b90508083825260208201905060208402830185811115611d9a57611d99611b18565b5b835b81811015611dc35780611daf88826117f3565b845260208401935050602081019050611d9c565b5050509392505050565b600082601f830112611de257611de1611a6c565b5b8135611df2848260208601611d64565b91505092915050565b60008060408385031215611e1257611e116117a0565b5b600083013567ffffffffffffffff811115611e3057611e2f6117a5565b5b611e3c85828601611dcd565b925050602083013567ffffffffffffffff811115611e5d57611e5c6117a5565b5b611e6985828601611b86565b9150509250929050565b600081519050919050565b600082825260208201905092915050565b6000819050602082019050919050565b611ea881611808565b82525050565b6000611eba8383611e9f565b60208301905092915050565b6000602082019050919050565b6000611ede82611e73565b611ee88185611e7e565b9350611ef383611e8f565b8060005b83811015611f24578151611f0b8882611eae565b9750611f1683611ec6565b925050600181019050611ef7565b5085935050505092915050565b60006020820190508181036000830152611f4b8184611ed3565b905092915050565b611f5c8161192d565b8114611f6757600080fd5b50565b600081359050611f7981611f53565b92915050565b60008060408385031215611f9657611f956117a0565b5b6000611fa4858286016117f3565b9250506020611fb585828601611f6a565b9150509250929050565b60008060408385031215611fd657611fd56117a0565b5b6000611fe4858286016117f3565b9250506020611ff5858286016117f3565b9150509250929050565b600080600080600060a0868803121561201b5761201a6117a0565b5b6000612029888289016117f3565b955050602061203a888289016117f3565b945050604061204b88828901611829565b935050606061205c88828901611829565b925050608086013567ffffffffffffffff81111561207d5761207c6117a5565b5b61208988828901611c3b565b9150509295509295909350565b7f4e487b7100000000000000000000000000000000000000000000000000000000600052602260045260246000fd5b600060028204905060018216806120dd57607f821691505b6020821081036120f0576120ef612096565b5b50919050565b600060408201905061210b6000830185611963565b6121186020830184611963565b9392505050565b6000604082019050612134600083018561187e565b612141602083018461187e565b9392505050565b7f4e487b7100000000000000000000000000000000000000000000000000000000600052603260045260246000fd5b7f4e487b7100000000000000000000000000000000000000000000000000000000600052601160045260246000fd5b60006121b182611808565b91506121bc83611808565b92508282019050808211156121d4576121d3612177565b5b92915050565b7f45786365656473206d617820737570706c790000000000000000000000000000600082015250565b60006122106012836119c5565b915061221b826121da565b602082019050919050565b6000602082019050818103600083015261223f81612203565b9050919050565b600061225182611808565b915061225c83611808565b925082820261226a81611808565b9150828204841483151761228157612280612177565b5b5092915050565b7f496e73756666696369656e74207061796d656e74000000000000000000000000600082015250565b60006122be6014836119c5565b91506122c982612288565b602082019050919050565b600060208201905081810360008301526122ed816122b1565b9050919050565b600081905092915050565b50565b600061230f6000836122f4565b915061231a826122ff565b600082019050919050565b600061233082612302565b9150819050919050565b7f5061796d656e74206661696c6564000000000000000000000000000000000000600082015250565b6000612370600e836119c5565b915061237b8261233a565b602082019050919050565b6000602082019050818103600083015261239f81612363565b9050919050565b60006080820190506123bb6000830187611963565b6123c8602083018661187e565b6123d5604083018561187e565b6123e2606083018461187e565b95945050505050565b600060408201905081810360008301526124058185611ed3565b905081810360208301526124198184611ed3565b90509392505050565b600081519050919050565b600082825260208201905092915050565b600061244982612422565b612453818561242d565b93506124638185602086016119d6565b61246c81611a00565b840191505092915050565b600060a08201905061248c6000830188611963565b6124996020830187611963565b6124a6604083018661187e565b6124b3606083018561187e565b81810360808301526124c5818461243e565b90509695505050505050565b6000815190506124e0816118d4565b92915050565b6000602082840312156124fc576124fb6117a0565b5b600061250a848285016124d1565b91505092915050565b600060a0820190506125286000830188611963565b6125356020830187611963565b81810360408301526125478186611ed3565b9050818103606083015261255b8185611ed3565b9050818103608083015261256f818461243e565b9050969550505050505056fea2646970667358221220018aff57b4318576e93bb263d035e9e49036633b82f50788c50e70778133bcec64736f6c634300081b0033a2646970667358221220e0b5bc9c11a7c4e868099091d416c28a7a920daa12b530e92a4d418d968aad0b64736f6c634300081b0033",
  "linkReferences": {},
  "deployedLinkReferences": {}
}