{
  "_format": "hh-sol-artifact-1",
  "contractName": "MVerOriginal",
  "sourceName": "contracts/MVerOriginal.sol",
  "abi": [
    {
      "inputs": [],
      "stateMutability": "nonpayable",
      "type": "constructor"
    },
    {
      "inputs": [],
      "name": "ERC721EnumerableForbiddenBatchMint",
      "type": "error"
    },
    {
      "inputs": [
        {
          "internalType": "address",
          "name": "sender",
          "type": "address"
        },
        {
          "internalType": "uint256",
          "name": "tokenId",
          "type": "uint256"
        },
        {
          "internalType": "address",
          "name": "owner",
          "type": "address"
        }
      ],
      "name": "ERC721IncorrectOwner",
      "type": "error"
    },
    {
      "inputs": [
        {
          "internalType": "address",
          "name": "operator",
          "type": "address"
        },
        {
          "internalType": "uint256",
          "name": "tokenId",
          "type": "uint256"
        }
      ],
      "name": "ERC721InsufficientApproval",
      "type": "error"
    },
    {
      "inputs": [
        {
          "internalType": "address",
          "name": "approver",
          "type": "address"
        }
      ],
      "name": "ERC721InvalidApprover",
      "type": "error"
    },
    {
      "inputs": [
        {
          "internalType": "address",
          "name": "operator",
          "type": "address"
        }
      ],
      "name": "ERC721InvalidOperator",
      "type": "error"
    },
    {
      "inputs": [
        {
          "internalType": "address",
          "name": "owner",
          "type": "address"
        }
      ],
      "name": "ERC721InvalidOwner",
      "type": "error"
    },
    {
      "inputs": [
        {
          "internalType": "address",
          "name": "receiver",
          "type": "address"
        }
      ],
      "name": "ERC721InvalidReceiver",
      "type": "error"
    },
    {
      "inputs": [
        {
          "internalType": "address",
          "name": "sender",
          "type": "address"
        }
      ],
      "name": "ERC721InvalidSender",
      "type": "error"
    },
    {
      "inputs": [
        {
          "internalType": "uint256",
          "name": "tokenId",
          "type": "uint256"
        }
      ],
      "name": "ERC721NonexistentToken",
      "type": "error"
    },
    {
      "inputs": [
        {
          "internalType": "address",
          "name": "owner",
          "type": "address"
        },
        {
          "internalType": "uint256",
          "name": "index",
          "type": "uint256"
        }
      ],
      "name": "ERC721OutOfBoundsIndex",
      "type": "error"
    },
    {
      "anonymous": false,
      "inputs": [
        {
          "indexed": true,
          "internalType": "address",
          "name": "owner",
          "type": "address"
        },
        {
          "indexed": true,
          "internalType": "address",
          "name": "approved",
          "type": "address"
        },
        {
          "indexed": true,
          "internalType": "uint256",
          "name": "tokenId",
          "type": "uint256"
        }
      ],
      "name": "Approval",
      "type": "event"
    },
    {
      "anonymous": false,
      "inputs": [
        {
          "indexed": true,
          "internalType": "address",
          "name": "owner",
          "type": "address"
        },
        {
          "indexed": true,
          "internalType": "address",
          "name": "operator",
          "type": "address"
        },
        {
          "indexed": false,
          "internalType": "bool",
          "name": "approved",
          "type": "bool"
        }
      ],
      "name": "ApprovalForAll",
      "type": "event"
    },
    {
      "anonymous": false,
      "inputs": [
        {
          "indexed": false,
          "internalType": "uint256",
          "name": "_fromTokenId",
          "type": "uint256"
        },
        {
          "indexed": false,
          "internalType": "uint256",
          "name": "_toTokenId",
          "type": "uint256"
        }
      ],
      "name": "BatchMetadataUpdate",
      "type": "event"
    },
    {
      "anonymous": false,
      "inputs": [
        {
          "indexed": true,
          "internalType": "uint256",
          "name": "tokenId",
          "type": "uint256"
        },
        {
          "indexed": true,
          "internalType": "address",
          "name": "creator",
          "type": "address"
        },
        {
          "indexed": false,
          "internalType": "string",
          "name": "title",
          "type": "string"
        },
        {
          "indexed": false,
          "internalType": "string",
          "name": "genre",
          "type": "string"
        },
        {
          "indexed": false,
          "internalType": "address",
          "name": "collectibleContract",
          "type": "address"
        }
      ],
      "name": "ContentCreated",
      "type": "event"
    },
    {
      "anonymous": false,
      "inputs": [
        {
          "indexed": true,
          "internalType": "uint256",
          "name": "tokenId",
          "type": "uint256"
        },
        {
          "indexed": true,
          "internalType": "address",
          "name": "liker",
          "type": "address"
        },
        {
          "indexed": false,
          "internalType": "uint256",
          "name": "newLikeCount",
          "type": "uint256"
        }
      ],
      "name": "ContentLiked",
      "type": "event"
    },
    {
      "anonymous": false,
      "inputs": [
        {
          "indexed": false,
          "internalType": "uint256",
          "name": "_tokenId",
          "type": "uint256"
        }
      ],
      "name": "MetadataUpdate",
      "type": "event"
    },
    {
      "anonymous": false,
      "inputs": [
        {
          "indexed": true,
          "internalType": "address",
          "name": "from",
          "type": "address"
        },
        {
          "indexed": true,
          "internalType": "address",
          "name": "to",
          "type": "address"
        },
        {
          "indexed": true,
          "internalType": "uint256",
          "name": "tokenId",
          "type": "uint256"
        }
      ],
      "name": "Transfer",
      "type": "event"
    },
    {
      "inputs": [
        {
          "internalType": "address",
          "name": "to",
          "type": "address"
        },
        {
          "internalType": "uint256",
          "name": "tokenId",
          "type": "uint256"
        }
      ],
      "name": "approve",
      "outputs": [],
      "stateMutability": "nonpayable",
      "type": "function"
    },
    {
      "inputs": [
        {
          "internalType": "address",
          "name": "owner",
          "type": "address"
        }
      ],
      "name": "balanceOf",
      "outputs": [
        {
          "internalType": "uint256",
          "name": "",
          "type": "uint256"
        }
      ],
      "stateMutability": "view",
      "type": "function"
    },
    {
      "inputs": [
        {
          "internalType": "string",
          "name": "title",
          "type": "string"
        },
        {
          "internalType": "string",
          "name": "genre",
          "type": "string"
        },
        {
          "internalType": "string",
          "name": "uri",
          "type": "string"
        },
        {
          "internalType": "address",
          "name": "collectibleContract",
          "type": "address"
        }
      ],
      "name": "createContent",
      "outputs": [
        {
          "internalType": "uint256",
          "name": "",
          "type": "uint256"
        }
      ],
      "stateMutability": "nonpayable",
      "type": "function"
    },
    {
      "inputs": [
        {
          "internalType": "address",
          "name": "",
          "type": "address"
        },
        {
          "internalType": "uint256",
          "name": "",
          "type": "uint256"
        }
      ],
      "name": "creatorContent",
      "outputs": [
        {
          "internalType": "uint256",
          "name": "",
          "type": "uint256"
        }
      ],
      "stateMutability": "view",
      "type": "function"
    },
    {
      "inputs": [],
      "name": "factory",
      "outputs": [
        {
          "internalType": "address",
          "name": "",
          "type": "address"
        }
      ],
      "stateMutability": "view",
      "type": "function"
    },
    {
      "inputs": [
        {
          "internalType": "uint256",
          "name": "tokenId",
          "type": "uint256"
        }
      ],
      "name": "getApproved",
      "outputs": [
        {
          "internalType": "address",
          "name": "",
          "type": "address"
        }
      ],
      "stateMutability": "view",
      "type": "function"
    },
    {
      "inputs": [
        {
          "internalType": "uint256",
          "name": "tokenId",
          "type": "uint256"
        }
      ],
      "name": "getLikes",
      "outputs": [
        {
          "internalType": "uint256",
          "name": "",
          "type": "uint256"
        }
      ],
      "stateMutability": "view",
      "type": "function"
    },
    {
      "inputs": [
        {
          "internalType": "uint256",
          "name": "tokenId",
          "type": "uint256"
        },
        {
          "internalType": "address",
          "name": "user",
          "type": "address"
        }
      ],
      "name": "hasLiked",
      "outputs": [
        {
          "internalType": "bool",
          "name": "",
          "type": "bool"
        }
      ],
      "stateMutability": "view",
      "type": "function"
    },
    {
      "inputs": [
        {
          "internalType": "address",
          "name": "owner",
          "type": "address"
        },
        {
          "internalType": "address",
          "name": "operator",
          "type": "address"
        }
      ],
      "name": "isApprovedForAll",
      "outputs": [
        {
          "internalType": "bool",
          "name": "",
          "type": "bool"
        }
      ],
      "stateMutability": "view",
      "type": "function"
    },
    {
      "inputs": [
        {
          "internalType": "uint256",
          "name": "tokenId",
          "type": "uint256"
        }
      ],
      "name": "likeContent",
      "outputs": [],
      "stateMutability": "nonpayable",
      "type": "function"
    },
    {
      "inputs": [],
      "name": "name",
      "outputs": [
        {
          "internalType": "string",
          "name": "",
          "type": "string"
        }
      ],
      "stateMutability": "view",
      "type": "function"
    },
    {
      "inputs": [
        {
          "internalType": "uint256",
          "name": "",
          "type": "uint256"
        }
      ],
      "name": "originals",
      "outputs": [
        {
          "internalType": "string",
          "name": "title",
          "type": "string"
        },
        {
          "internalType": "string",
          "name": "genre",
          "type": "string"
        },
        {
          "internalType": "uint256",
          "name": "createdAt",
          "type": "uint256"
        },
        {
          "internalType": "uint256",
          "name": "likes",
          "type": "uint256"
        },
        {
          "internalType": "address",
          "name": "collectibleContract",
          "type": "address"
        },
        {
          "internalType": "address",
          "name": "creator",
          "type": "address"
        }
      ],
      "stateMutability": "view",
      "type": "function"
    },
    {
      "inputs": [
        {
          "internalType": "uint256",
          "name": "tokenId",
          "type": "uint256"
        }
      ],
      "name": "ownerOf",
      "outputs": [
        {
          "internalType": "address",
          "name": "",
          "type": "address"
        }
      ],
      "stateMutability": "view",
      "type": "function"
    },
    {
      "inputs": [
        {
          "internalType": "address",
          "name": "from",
          "type": "address"
        },
        {
          "internalType": "address",
          "name": "to",
          "type": "address"
        },
        {
          "internalType": "uint256",
          "name": "tokenId",
          "type": "uint256"
        }
      ],
      "name": "safeTransferFrom",
      "outputs": [],
      "stateMutability": "nonpayable",
      "type": "function"
    },
    {
      "inputs": [
        {
          "internalType": "address",
          "name": "from",
          "type": "address"
        },
        {
          "internalType": "address",
          "name": "to",
          "type": "address"
        },
        {
          "internalType": "uint256",
          "name": "tokenId",
          "type": "uint256"
        },
        {
          "internalType": "bytes",
          "name": "data",
          "type": "bytes"
        }
      ],
      "name": "safeTransferFrom",
      "outputs": [],
      "stateMutability": "nonpayable",
      "type": "function"
    },
    {
      "inputs": [
        {
          "internalType": "address",
          "name": "operator",
          "type": "address"
        },
        {
          "internalType": "bool",
          "name": "approved",
          "type": "bool"
        }
      ],
      "name": "setApprovalForAll",
      "outputs": [],
      "stateMutability": "nonpayable",
      "type": "function"
    },
    {
      "inputs": [
        {
          "internalType": "bool",
          "name": "approved",
          "type": "bool"
        }
      ],
      "name": "setApprovalForFactory",
      "outputs": [],
      "stateMutability": "nonpayable",
      "type": "function"
    },
    {
      "inputs": [
        {
          "internalType": "address",
          "name": "_factory",
          "type": "address"
        }
      ],
      "name": "setFactory",
      "outputs": [],
      "stateMutability": "nonpayable",
      "type": "function"
    },
    {
      "inputs": [
        {
          "internalType": "bytes4",
          "name": "interfaceId",
          "type": "bytes4"
        }
      ],
      "name": "supportsInterface",
      "outputs": [
        {
          "internalType": "bool",
          "name": "",
          "type": "bool"
        }
      ],
      "stateMutability": "view",
      "type": "function"
    },
    {
      "inputs": [],
      "name": "symbol",
      "outputs": [
        {
          "internalType": "string",
          "name": "",
          "type": "string"
        }
      ],
      "stateMutability": "view",
      "type": "function"
    },
    {
      "inputs": [
        {
          "internalType": "uint256",
          "name": "index",
          "type": "uint256"
        }
      ],
      "name": "tokenByIndex",
      "outputs": [
        {
          "internalType": "uint256",
          "name": "",
          "type": "uint256"
        }
      ],
      "stateMutability": "view",
      "type": "function"
    },
    {
      "inputs": [
        {
          "internalType": "address",
          "name": "owner",
          "type": "address"
        },
        {
          "internalType": "uint256",
          "name": "index",
          "type": "uint256"
        }
      ],
      "name": "tokenOfOwnerByIndex",
      "outputs": [
        {
          "internalType": "uint256",
          "name": "",
          "type": "uint256"
        }
      ],
      "stateMutability": "view",
      "type": "function"
    },
    {
      "inputs": [
        {
          "internalType": "uint256",
          "name": "tokenId",
          "type": "uint256"
        }
      ],
      "name": "tokenURI",
      "outputs": [
        {
          "internalType": "string",
          "name": "",
          "type": "string"
        }
      ],
      "stateMutability": "view",
      "type": "function"
    },
    {
      "inputs": [],
      "name": "totalSupply",
      "outputs": [
        {
          "internalType": "uint256",
          "name": "",
          "type": "uint256"
        }
      ],
      "stateMutability": "view",
      "type": "function"
    },
    {
      "inputs": [
        {
          "internalType": "address",
          "name": "from",
          "type": "address"
        },
        {
          "internalType": "address",
          "name": "to",
          "type": "address"
        },
        {
          "internalType": "uint256",
          "name": "tokenId",
          "type": "uint256"
        }
      ],
      "name": "transferFrom",
      "outputs": [],
      "stateMutability": "nonpayable",
      "type": "function"
    },
    {
      "inputs": [
        {
          "internalType": "uint256",
          "name": "tokenId",
          "type": "uint256"
        },
        {
          "internalType": "address",
          "name": "collectibleContract",
          "type": "address"
        }
      ],
      "name": "updateCollectibleContract",
      "outputs": [],
      "stateMutability": "nonpayable",
      "type": "function"
    }
  ],
  "bytecode": "0x608060405234801561001057600080fd5b506040518060400160405280600d81526020017f4d566572204f726967696e616c000000000000000000000000000000000000008152506040518060400160405280600581526020017f4d5645524f000000000000000000000000000000000000000000000000000000815250816000908161008c91906102f4565b50806001908161009c91906102f4565b5050506103c6565b600081519050919050565b7f4e487b7100000000000000000000000000000000000000000000000000000000600052604160045260246000fd5b7f4e487b7100000000000000000000000000000000000000000000000000000000600052602260045260246000fd5b6000600282049050600182168061012557607f821691505b602082108103610138576101376100de565b5b50919050565b60008190508160005260206000209050919050565b60006020601f8301049050919050565b600082821b905092915050565b6000600883026101a07fffffffffffffffffffffffffffffffffffffffffffffffffffffffffffffffff82610163565b6101aa8683610163565b95508019841693508086168417925050509392505050565b6000819050919050565b6000819050919050565b60006101f16101ec6101e7846101c2565b6101cc565b6101c2565b9050919050565b6000819050919050565b61020b836101d6565b61021f610217826101f8565b848454610170565b825550505050565b600090565b610234610227565b61023f818484610202565b505050565b5b818110156102635761025860008261022c565b600181019050610245565b5050565b601f8211156102a8576102798161013e565b61028284610153565b81016020851015610291578190505b6102a561029d85610153565b830182610244565b50505b505050565b600082821c905092915050565b60006102cb600019846008026102ad565b1980831691505092915050565b60006102e483836102ba565b9150826002028217905092915050565b6102fd826100a4565b67ffffffffffffffff811115610316576103156100af565b5b610320825461010d565b61032b828285610267565b600060209050601f83116001811461035e576000841561034c578287015190505b61035685826102d8565b8655506103be565b601f19841661036c8661013e565b60005b828110156103945784890151825560018201915060208501945060208101905061036f565b868310156103b157848901516103ad601f8916826102ba565b8355505b6001600288020188555050505b505050505050565b6139f4806103d56000396000f3fe608060405234801561001057600080fd5b506004361061018e5760003560e01c806370a08231116100de578063ae9e47e511610097578063c87b56dd11610071578063c87b56dd146104d0578063d1c783c814610500578063d3523ede1461051c578063e985e9c51461054c5761018e565b8063ae9e47e51461047a578063b88d4fde14610496578063c45a0155146104b25761018e565b806370a082311461037b5780638fb7092c146103ab57806395d89b41146103db578063a209081e146103f9578063a22cb46514610429578063ac446a2d146104455761018e565b80632f745c591161014b5780635bb47808116101255780635bb47808146102e35780635f37cd61146102ff5780636352211e1461031b5780636a480eb81461034b5761018e565b80632f745c591461026757806342842e0e146102975780634f6ccce7146102b35761018e565b806301ffc9a71461019357806306fdde03146101c3578063081812fc146101e1578063095ea7b31461021157806318160ddd1461022d57806323b872dd1461024b575b600080fd5b6101ad60048036038101906101a89190612a1e565b61057c565b6040516101ba9190612a66565b60405180910390f35b6101cb61058e565b6040516101d89190612b11565b60405180910390f35b6101fb60048036038101906101f69190612b69565b610620565b6040516102089190612bd7565b60405180910390f35b61022b60048036038101906102269190612c1e565b61063c565b005b610235610652565b6040516102429190612c6d565b60405180910390f35b61026560048036038101906102609190612c88565b61065f565b005b610281600480360381019061027c9190612c1e565b610761565b60405161028e9190612c6d565b60405180910390f35b6102b160048036038101906102ac9190612c88565b61080a565b005b6102cd60048036038101906102c89190612b69565b61082a565b6040516102da9190612c6d565b60405180910390f35b6102fd60048036038101906102f89190612cdb565b6108a0565b005b61031960048036038101906103149190612b69565b6109e4565b005b61033560048036038101906103309190612b69565b610bf6565b6040516103429190612bd7565b60405180910390f35b61036560048036038101906103609190612c1e565b610c08565b6040516103729190612c6d565b60405180910390f35b61039560048036038101906103909190612cdb565b610c39565b6040516103a29190612c6d565b60405180910390f35b6103c560048036038101906103c09190612d08565b610cf3565b6040516103d29190612a66565b60405180910390f35b6103e3610d5b565b6040516103f09190612b11565b60405180910390f35b610413600480360381019061040e9190612b69565b610ded565b6040516104209190612c6d565b60405180910390f35b610443600480360381019061043e9190612d74565b610e83565b005b61045f600480360381019061045a9190612b69565b610e99565b60405161047196959493929190612db4565b60405180910390f35b610494600480360381019061048f9190612e23565b611025565b005b6104b060048036038101906104ab9190612f85565b611054565b005b6104ba611079565b6040516104c79190612bd7565b60405180910390f35b6104ea60048036038101906104e59190612b69565b61109f565b6040516104f79190612b11565b60405180910390f35b61051a60048036038101906105159190612d08565b6110b1565b005b610536600480360381019061053191906130a9565b611211565b6040516105439190612c6d565b60405180910390f35b61056660048036038101906105619190613164565b611449565b6040516105739190612a66565b60405180910390f35b6000610587826114dd565b9050919050565b60606000805461059d906131d3565b80601f01602080910402602001604051908101604052809291908181526020018280546105c9906131d3565b80156106165780601f106105eb57610100808354040283529160200191610616565b820191906000526020600020905b8154815290600101906020018083116105f957829003601f168201915b5050505050905090565b600061062b82611557565b50610635826115df565b9050919050565b61064e828261064961161c565b611624565b5050565b6000600980549050905090565b600073ffffffffffffffffffffffffffffffffffffffff168273ffffffffffffffffffffffffffffffffffffffff16036106d15760006040517f64a0ae920000000000000000000000000000000000000000000000000000000081526004016106c89190612bd7565b60405180910390fd5b60006106e583836106e061161c565b611636565b90508373ffffffffffffffffffffffffffffffffffffffff168173ffffffffffffffffffffffffffffffffffffffff161461075b578382826040517f64283d7b00000000000000000000000000000000000000000000000000000000815260040161075293929190613204565b60405180910390fd5b50505050565b600061076c83610c39565b82106107b15782826040517fa57d13dc0000000000000000000000000000000000000000000000000000000081526004016107a892919061323b565b60405180910390fd5b600760008473ffffffffffffffffffffffffffffffffffffffff1673ffffffffffffffffffffffffffffffffffffffff168152602001908152602001600020600083815260200190815260200160002054905092915050565b61082583838360405180602001604052806000815250611054565b505050565b6000610834610652565b821061087a576000826040517fa57d13dc00000000000000000000000000000000000000000000000000000000815260040161087192919061323b565b60405180910390fd5b6009828154811061088e5761088d613264565b5b90600052602060002001549050919050565b600073ffffffffffffffffffffffffffffffffffffffff16600c60009054906101000a900473ffffffffffffffffffffffffffffffffffffffff1673ffffffffffffffffffffffffffffffffffffffff1614610931576040517f08c379a0000000000000000000000000000000000000000000000000000000008152600401610928906132df565b60405180910390fd5b600073ffffffffffffffffffffffffffffffffffffffff168173ffffffffffffffffffffffffffffffffffffffff16036109a0576040517f08c379a00000000000000000000000000000000000000000000000000000000081526004016109979061334b565b60405180910390fd5b80600c60006101000a81548173ffffffffffffffffffffffffffffffffffffffff021916908373ffffffffffffffffffffffffffffffffffffffff16021790555050565b600073ffffffffffffffffffffffffffffffffffffffff16610a058261164c565b73ffffffffffffffffffffffffffffffffffffffff1603610a5b576040517f08c379a0000000000000000000000000000000000000000000000000000000008152600401610a52906133b7565b60405180910390fd5b600e600082815260200190815260200160002060003373ffffffffffffffffffffffffffffffffffffffff1673ffffffffffffffffffffffffffffffffffffffff16815260200190815260200160002060009054906101000a900460ff1615610af9576040517f08c379a0000000000000000000000000000000000000000000000000000000008152600401610af090613423565b60405180910390fd5b600d60008281526020019081526020016000206003016000815480929190610b2090613472565b91905055506001600e600083815260200190815260200160002060003373ffffffffffffffffffffffffffffffffffffffff1673ffffffffffffffffffffffffffffffffffffffff16815260200190815260200160002060006101000a81548160ff0219169083151502179055503373ffffffffffffffffffffffffffffffffffffffff16817f47206ae22e39c8ecec1df74b7eec36799eb23c1b380fa8b871a75063fb3f881c600d600085815260200190815260200160002060030154604051610beb9190612c6d565b60405180910390a350565b6000610c0182611557565b9050919050565b600f6020528160005260406000208181548110610c2457600080fd5b90600052602060002001600091509150505481565b60008073ffffffffffffffffffffffffffffffffffffffff168273ffffffffffffffffffffffffffffffffffffffff1603610cac5760006040517f89c62b64000000000000000000000000000000000000000000000000000000008152600401610ca39190612bd7565b60405180910390fd5b600360008373ffffffffffffffffffffffffffffffffffffffff1673ffffffffffffffffffffffffffffffffffffffff168152602001908152602001600020549050919050565b6000600e600084815260200190815260200160002060008373ffffffffffffffffffffffffffffffffffffffff1673ffffffffffffffffffffffffffffffffffffffff16815260200190815260200160002060009054906101000a900460ff16905092915050565b606060018054610d6a906131d3565b80601f0160208091040260200160405190810160405280929190818152602001828054610d96906131d3565b8015610de35780601f10610db857610100808354040283529160200191610de3565b820191906000526020600020905b815481529060010190602001808311610dc657829003601f168201915b5050505050905090565b60008073ffffffffffffffffffffffffffffffffffffffff16610e0f8361164c565b73ffffffffffffffffffffffffffffffffffffffff1603610e65576040517f08c379a0000000000000000000000000000000000000000000000000000000008152600401610e5c906133b7565b60405180910390fd5b600d6000838152602001908152602001600020600301549050919050565b610e95610e8e61161c565b8383611689565b5050565b600d602052806000526040600020600091509050806000018054610ebc906131d3565b80601f0160208091040260200160405190810160405280929190818152602001828054610ee8906131d3565b8015610f355780601f10610f0a57610100808354040283529160200191610f35565b820191906000526020600020905b815481529060010190602001808311610f1857829003601f168201915b505050505090806001018054610f4a906131d3565b80601f0160208091040260200160405190810160405280929190818152602001828054610f76906131d3565b8015610fc35780601f10610f9857610100808354040283529160200191610fc3565b820191906000526020600020905b815481529060010190602001808311610fa657829003601f168201915b5050505050908060020154908060030154908060040160009054906101000a900473ffffffffffffffffffffffffffffffffffffffff16908060050160009054906101000a900473ffffffffffffffffffffffffffffffffffffffff16905086565b611051600c60009054906101000a900473ffffffffffffffffffffffffffffffffffffffff1682610e83565b50565b61105f84848461065f565b61107361106a61161c565b858585856117f8565b50505050565b600c60009054906101000a900473ffffffffffffffffffffffffffffffffffffffff1681565b60606110aa826119a9565b9050919050565b600c60009054906101000a900473ffffffffffffffffffffffffffffffffffffffff1673ffffffffffffffffffffffffffffffffffffffff163373ffffffffffffffffffffffffffffffffffffffff1614611141576040517f08c379a000000000000000000000000000000000000000000000000000000000815260040161113890613506565b60405180910390fd5b600073ffffffffffffffffffffffffffffffffffffffff166111628361164c565b73ffffffffffffffffffffffffffffffffffffffff16036111b8576040517f08c379a00000000000000000000000000000000000000000000000000000000081526004016111af906133b7565b60405180910390fd5b80600d600084815260200190815260200160002060040160006101000a81548173ffffffffffffffffffffffffffffffffffffffff021916908373ffffffffffffffffffffffffffffffffffffffff1602179055505050565b6000600b600081548092919061122690613472565b91905055506000600b54905061123c3382611abc565b6112468185611ada565b6040518060c00160405280878152602001868152602001428152602001600081526020018473ffffffffffffffffffffffffffffffffffffffff1681526020013373ffffffffffffffffffffffffffffffffffffffff16815250600d600083815260200190815260200160002060008201518160000190816112c891906136d2565b5060208201518160010190816112de91906136d2565b50604082015181600201556060820151816003015560808201518160040160006101000a81548173ffffffffffffffffffffffffffffffffffffffff021916908373ffffffffffffffffffffffffffffffffffffffff16021790555060a08201518160050160006101000a81548173ffffffffffffffffffffffffffffffffffffffff021916908373ffffffffffffffffffffffffffffffffffffffff160217905550905050600f60003373ffffffffffffffffffffffffffffffffffffffff1673ffffffffffffffffffffffffffffffffffffffff1681526020019081526020016000208190806001815401808255809150506001900390600052602060002001600090919091909150553373ffffffffffffffffffffffffffffffffffffffff16817fff5404a601409915c2f36732d57f5c31483a82aafc475847c5e940baf0f8096f888887604051611435939291906137a4565b60405180910390a380915050949350505050565b6000600560008473ffffffffffffffffffffffffffffffffffffffff1673ffffffffffffffffffffffffffffffffffffffff16815260200190815260200160002060008373ffffffffffffffffffffffffffffffffffffffff1673ffffffffffffffffffffffffffffffffffffffff16815260200190815260200160002060009054906101000a900460ff16905092915050565b60007f780e9d63000000000000000000000000000000000000000000000000000000007bffffffffffffffffffffffffffffffffffffffffffffffffffffffff1916827bffffffffffffffffffffffffffffffffffffffffffffffffffffffff19161480611550575061154f82611b36565b5b9050919050565b6000806115638361164c565b9050600073ffffffffffffffffffffffffffffffffffffffff168173ffffffffffffffffffffffffffffffffffffffff16036115d657826040517f7e2732890000000000000000000000000000000000000000000000000000000081526004016115cd9190612c6d565b60405180910390fd5b80915050919050565b60006004600083815260200190815260200160002060009054906101000a900473ffffffffffffffffffffffffffffffffffffffff169050919050565b600033905090565b6116318383836001611b97565b505050565b6000611643848484611d5c565b90509392505050565b60006002600083815260200190815260200160002060009054906101000a900473ffffffffffffffffffffffffffffffffffffffff169050919050565b600073ffffffffffffffffffffffffffffffffffffffff168273ffffffffffffffffffffffffffffffffffffffff16036116fa57816040517f5b08ba180000000000000000000000000000000000000000000000000000000081526004016116f19190612bd7565b60405180910390fd5b80600560008573ffffffffffffffffffffffffffffffffffffffff1673ffffffffffffffffffffffffffffffffffffffff16815260200190815260200160002060008473ffffffffffffffffffffffffffffffffffffffff1673ffffffffffffffffffffffffffffffffffffffff16815260200190815260200160002060006101000a81548160ff0219169083151502179055508173ffffffffffffffffffffffffffffffffffffffff168373ffffffffffffffffffffffffffffffffffffffff167f17307eab39ab6107e8899845ad3d59bd9653f200f220920489ca2b5937696c31836040516117eb9190612a66565b60405180910390a3505050565b60008373ffffffffffffffffffffffffffffffffffffffff163b11156119a2578273ffffffffffffffffffffffffffffffffffffffff1663150b7a02868685856040518563ffffffff1660e01b8152600401611857949392919061383e565b6020604051808303816000875af192505050801561189357506040513d601f19601f82011682018060405250810190611890919061389f565b60015b611917573d80600081146118c3576040519150601f19603f3d011682016040523d82523d6000602084013e6118c8565b606091505b50600081510361190f57836040517f64a0ae920000000000000000000000000000000000000000000000000000000081526004016119069190612bd7565b60405180910390fd5b805181602001fd5b63150b7a0260e01b7bffffffffffffffffffffffffffffffffffffffffffffffffffffffff1916817bffffffffffffffffffffffffffffffffffffffffffffffffffffffff1916146119a057836040517f64a0ae920000000000000000000000000000000000000000000000000000000081526004016119979190612bd7565b60405180910390fd5b505b5050505050565b60606119b482611557565b5060006006600084815260200190815260200160002080546119d5906131d3565b80601f0160208091040260200160405190810160405280929190818152602001828054611a01906131d3565b8015611a4e5780601f10611a2357610100808354040283529160200191611a4e565b820191906000526020600020905b815481529060010190602001808311611a3157829003601f168201915b505050505090506000611a5f611e79565b90506000815103611a74578192505050611ab7565b600082511115611aa9578082604051602001611a91929190613908565b60405160208183030381529060405292505050611ab7565b611ab284611e90565b925050505b919050565b611ad6828260405180602001604052806000815250611ef9565b5050565b80600660008481526020019081526020016000209081611afa91906136d2565b507ff8e1a15aba9398e019f0b49df1a4fde98ee17ae345cb5f6b5e2c27f5033e8ce782604051611b2a9190612c6d565b60405180910390a15050565b6000634906490660e01b7bffffffffffffffffffffffffffffffffffffffffffffffffffffffff1916827bffffffffffffffffffffffffffffffffffffffffffffffffffffffff19161480611b905750611b8f82611f1d565b5b9050919050565b8080611bd05750600073ffffffffffffffffffffffffffffffffffffffff168273ffffffffffffffffffffffffffffffffffffffff1614155b15611d04576000611be084611557565b9050600073ffffffffffffffffffffffffffffffffffffffff168373ffffffffffffffffffffffffffffffffffffffff1614158015611c4b57508273ffffffffffffffffffffffffffffffffffffffff168173ffffffffffffffffffffffffffffffffffffffff1614155b8015611c5e5750611c5c8184611449565b155b15611ca057826040517fa9fbf51f000000000000000000000000000000000000000000000000000000008152600401611c979190612bd7565b60405180910390fd5b8115611d0257838573ffffffffffffffffffffffffffffffffffffffff168273ffffffffffffffffffffffffffffffffffffffff167f8c5be1e5ebec7d5bd14f71427d1e84f3dd0314c0f7b2291e5b200ac8c7c3b92560405160405180910390a45b505b836004600085815260200190815260200160002060006101000a81548173ffffffffffffffffffffffffffffffffffffffff021916908373ffffffffffffffffffffffffffffffffffffffff16021790555050505050565b600080611d6a858585611fff565b9050600073ffffffffffffffffffffffffffffffffffffffff168173ffffffffffffffffffffffffffffffffffffffff1603611dae57611da984612219565b611ded565b8473ffffffffffffffffffffffffffffffffffffffff168173ffffffffffffffffffffffffffffffffffffffff1614611dec57611deb8185612262565b5b5b600073ffffffffffffffffffffffffffffffffffffffff168573ffffffffffffffffffffffffffffffffffffffff1603611e2f57611e2a8461234d565b611e6e565b8473ffffffffffffffffffffffffffffffffffffffff168173ffffffffffffffffffffffffffffffffffffffff1614611e6d57611e6c858561241e565b5b5b809150509392505050565b606060405180602001604052806000815250905090565b6060611e9b82611557565b506000611ea6611e79565b90506000815111611ec65760405180602001604052806000815250611ef1565b80611ed0846124a9565b604051602001611ee1929190613908565b6040516020818303038152906040525b915050919050565b611f038383612577565b611f18611f0e61161c565b60008585856117f8565b505050565b60007f80ac58cd000000000000000000000000000000000000000000000000000000007bffffffffffffffffffffffffffffffffffffffffffffffffffffffff1916827bffffffffffffffffffffffffffffffffffffffffffffffffffffffff19161480611fe857507f5b5e139f000000000000000000000000000000000000000000000000000000007bffffffffffffffffffffffffffffffffffffffffffffffffffffffff1916827bffffffffffffffffffffffffffffffffffffffffffffffffffffffff1916145b80611ff85750611ff782612670565b5b9050919050565b60008061200b8461164c565b9050600073ffffffffffffffffffffffffffffffffffffffff168373ffffffffffffffffffffffffffffffffffffffff161461204d5761204c8184866126da565b5b600073ffffffffffffffffffffffffffffffffffffffff168173ffffffffffffffffffffffffffffffffffffffff16146120de5761208f600085600080611b97565b6001600360008373ffffffffffffffffffffffffffffffffffffffff1673ffffffffffffffffffffffffffffffffffffffff168152602001908152602001600020600082825403925050819055505b600073ffffffffffffffffffffffffffffffffffffffff168573ffffffffffffffffffffffffffffffffffffffff1614612161576001600360008773ffffffffffffffffffffffffffffffffffffffff1673ffffffffffffffffffffffffffffffffffffffff168152602001908152602001600020600082825401925050819055505b846002600086815260200190815260200160002060006101000a81548173ffffffffffffffffffffffffffffffffffffffff021916908373ffffffffffffffffffffffffffffffffffffffff160217905550838573ffffffffffffffffffffffffffffffffffffffff168273ffffffffffffffffffffffffffffffffffffffff167fddf252ad1be2c89b69c2b068fc378daa952ba7f163c4a11628f55a4df523b3ef60405160405180910390a4809150509392505050565b600980549050600a600083815260200190815260200160002081905550600981908060018154018082558091505060019003906000526020600020016000909190919091505550565b600061226d83610c39565b90506000600860008481526020019081526020016000205490506000600760008673ffffffffffffffffffffffffffffffffffffffff1673ffffffffffffffffffffffffffffffffffffffff16815260200190815260200160002090508282146123195760008160008581526020019081526020016000205490508082600085815260200190815260200160002081905550826008600083815260200190815260200160002081905550505b6008600085815260200190815260200160002060009055806000848152602001908152602001600020600090555050505050565b60006001600980549050612361919061392c565b90506000600a600084815260200190815260200160002054905060006009838154811061239157612390613264565b5b9060005260206000200154905080600983815481106123b3576123b2613264565b5b906000526020600020018190555081600a600083815260200190815260200160002081905550600a600085815260200190815260200160002060009055600980548061240257612401613960565b5b6001900381819060005260206000200160009055905550505050565b6000600161242b84610c39565b612435919061392c565b905081600760008573ffffffffffffffffffffffffffffffffffffffff1673ffffffffffffffffffffffffffffffffffffffff168152602001908152602001600020600083815260200190815260200160002081905550806008600084815260200190815260200160002081905550505050565b6060600060016124b88461279e565b01905060008167ffffffffffffffff8111156124d7576124d6612e5a565b5b6040519080825280601f01601f1916602001820160405280156125095781602001600182028036833780820191505090505b509050600082602001820190505b60011561256c578080600190039150507f3031323334353637383961626364656600000000000000000000000000000000600a86061a8153600a85816125605761255f61398f565b5b04945060008503612517575b819350505050919050565b600073ffffffffffffffffffffffffffffffffffffffff168273ffffffffffffffffffffffffffffffffffffffff16036125e95760006040517f64a0ae920000000000000000000000000000000000000000000000000000000081526004016125e09190612bd7565b60405180910390fd5b60006125f783836000611636565b9050600073ffffffffffffffffffffffffffffffffffffffff168173ffffffffffffffffffffffffffffffffffffffff161461266b5760006040517f73c6ac6e0000000000000000000000000000000000000000000000000000000081526004016126629190612bd7565b60405180910390fd5b505050565b60007f01ffc9a7000000000000000000000000000000000000000000000000000000007bffffffffffffffffffffffffffffffffffffffffffffffffffffffff1916827bffffffffffffffffffffffffffffffffffffffffffffffffffffffff1916149050919050565b6126e58383836128f1565b61279957600073ffffffffffffffffffffffffffffffffffffffff168373ffffffffffffffffffffffffffffffffffffffff160361275a57806040517f7e2732890000000000000000000000000000000000000000000000000000000081526004016127519190612c6d565b60405180910390fd5b81816040517f177e802f00000000000000000000000000000000000000000000000000000000815260040161279092919061323b565b60405180910390fd5b505050565b600080600090507a184f03e93ff9f4daa797ed6e38ed64bf6a1f01000000000000000083106127fc577a184f03e93ff9f4daa797ed6e38ed64bf6a1f01000000000000000083816127f2576127f161398f565b5b0492506040810190505b6d04ee2d6d415b85acef81000000008310612839576d04ee2d6d415b85acef8100000000838161282f5761282e61398f565b5b0492506020810190505b662386f26fc10000831061286857662386f26fc10000838161285e5761285d61398f565b5b0492506010810190505b6305f5e1008310612891576305f5e10083816128875761288661398f565b5b0492506008810190505b61271083106128b65761271083816128ac576128ab61398f565b5b0492506004810190505b606483106128d957606483816128cf576128ce61398f565b5b0492506002810190505b600a83106128e8576001810190505b80915050919050565b60008073ffffffffffffffffffffffffffffffffffffffff168373ffffffffffffffffffffffffffffffffffffffff16141580156129a957508273ffffffffffffffffffffffffffffffffffffffff168473ffffffffffffffffffffffffffffffffffffffff16148061296a57506129698484611449565b5b806129a857508273ffffffffffffffffffffffffffffffffffffffff16612990836115df565b73ffffffffffffffffffffffffffffffffffffffff16145b5b90509392505050565b6000604051905090565b600080fd5b600080fd5b60007fffffffff0000000000000000000000000000000000000000000000000000000082169050919050565b6129fb816129c6565b8114612a0657600080fd5b50565b600081359050612a18816129f2565b92915050565b600060208284031215612a3457612a336129bc565b5b6000612a4284828501612a09565b91505092915050565b60008115159050919050565b612a6081612a4b565b82525050565b6000602082019050612a7b6000830184612a57565b92915050565b600081519050919050565b600082825260208201905092915050565b60005b83811015612abb578082015181840152602081019050612aa0565b60008484015250505050565b6000601f19601f8301169050919050565b6000612ae382612a81565b612aed8185612a8c565b9350612afd818560208601612a9d565b612b0681612ac7565b840191505092915050565b60006020820190508181036000830152612b2b8184612ad8565b905092915050565b6000819050919050565b612b4681612b33565b8114612b5157600080fd5b50565b600081359050612b6381612b3d565b92915050565b600060208284031215612b7f57612b7e6129bc565b5b6000612b8d84828501612b54565b91505092915050565b600073ffffffffffffffffffffffffffffffffffffffff82169050919050565b6000612bc182612b96565b9050919050565b612bd181612bb6565b82525050565b6000602082019050612bec6000830184612bc8565b92915050565b612bfb81612bb6565b8114612c0657600080fd5b50565b600081359050612c1881612bf2565b92915050565b60008060408385031215612c3557612c346129bc565b5b6000612c4385828601612c09565b9250506020612c5485828601612b54565b9150509250929050565b612c6781612b33565b82525050565b6000602082019050612c826000830184612c5e565b92915050565b600080600060608486031215612ca157612ca06129bc565b5b6000612caf86828701612c09565b9350506020612cc086828701612c09565b9250506040612cd186828701612b54565b9150509250925092565b600060208284031215612cf157612cf06129bc565b5b6000612cff84828501612c09565b91505092915050565b60008060408385031215612d1f57612d1e6129bc565b5b6000612d2d85828601612b54565b9250506020612d3e85828601612c09565b9150509250929050565b612d5181612a4b565b8114612d5c57600080fd5b50565b600081359050612d6e81612d48565b92915050565b60008060408385031215612d8b57612d8a6129bc565b5b6000612d9985828601612c09565b9250506020612daa85828601612d5f565b9150509250929050565b600060c0820190508181036000830152612dce8189612ad8565b90508181036020830152612de28188612ad8565b9050612df16040830187612c5e565b612dfe6060830186612c5e565b612e0b6080830185612bc8565b612e1860a0830184612bc8565b979650505050505050565b600060208284031215612e3957612e386129bc565b5b6000612e4784828501612d5f565b91505092915050565b600080fd5b600080fd5b7f4e487b7100000000000000000000000000000000000000000000000000000000600052604160045260246000fd5b612e9282612ac7565b810181811067ffffffffffffffff82111715612eb157612eb0612e5a565b5b80604052505050565b6000612ec46129b2565b9050612ed08282612e89565b919050565b600067ffffffffffffffff821115612ef057612eef612e5a565b5b612ef982612ac7565b9050602081019050919050565b82818337600083830152505050565b6000612f28612f2384612ed5565b612eba565b905082815260208101848484011115612f4457612f43612e55565b5b612f4f848285612f06565b509392505050565b600082601f830112612f6c57612f6b612e50565b5b8135612f7c848260208601612f15565b91505092915050565b60008060008060808587031215612f9f57612f9e6129bc565b5b6000612fad87828801612c09565b9450506020612fbe87828801612c09565b9350506040612fcf87828801612b54565b925050606085013567ffffffffffffffff811115612ff057612fef6129c1565b5b612ffc87828801612f57565b91505092959194509250565b600067ffffffffffffffff82111561302357613022612e5a565b5b61302c82612ac7565b9050602081019050919050565b600061304c61304784613008565b612eba565b90508281526020810184848401111561306857613067612e55565b5b613073848285612f06565b509392505050565b600082601f8301126130905761308f612e50565b5b81356130a0848260208601613039565b91505092915050565b600080600080608085870312156130c3576130c26129bc565b5b600085013567ffffffffffffffff8111156130e1576130e06129c1565b5b6130ed8782880161307b565b945050602085013567ffffffffffffffff81111561310e5761310d6129c1565b5b61311a8782880161307b565b935050604085013567ffffffffffffffff81111561313b5761313a6129c1565b5b6131478782880161307b565b925050606061315887828801612c09565b91505092959194509250565b6000806040838503121561317b5761317a6129bc565b5b600061318985828601612c09565b925050602061319a85828601612c09565b9150509250929050565b7f4e487b7100000000000000000000000000000000000000000000000000000000600052602260045260246000fd5b600060028204905060018216806131eb57607f821691505b6020821081036131fe576131fd6131a4565b5b50919050565b60006060820190506132196000830186612bc8565b6132266020830185612c5e565b6132336040830184612bc8565b949350505050565b60006040820190506132506000830185612bc8565b61325d6020830184612c5e565b9392505050565b7f4e487b7100000000000000000000000000000000000000000000000000000000600052603260045260246000fd5b7f466163746f727920616c72656164792073657400000000000000000000000000600082015250565b60006132c9601383612a8c565b91506132d482613293565b602082019050919050565b600060208201905081810360008301526132f8816132bc565b9050919050565b7f496e76616c696420666163746f72792061646472657373000000000000000000600082015250565b6000613335601783612a8c565b9150613340826132ff565b602082019050919050565b6000602082019050818103600083015261336481613328565b9050919050565b7f436f6e74656e7420646f65736e27742065786973740000000000000000000000600082015250565b60006133a1601583612a8c565b91506133ac8261336b565b602082019050919050565b600060208201905081810360008301526133d081613394565b9050919050565b7f416c7265616479206c696b656400000000000000000000000000000000000000600082015250565b600061340d600d83612a8c565b9150613418826133d7565b602082019050919050565b6000602082019050818103600083015261343c81613400565b9050919050565b7f4e487b7100000000000000000000000000000000000000000000000000000000600052601160045260246000fd5b600061347d82612b33565b91507fffffffffffffffffffffffffffffffffffffffffffffffffffffffffffffffff82036134af576134ae613443565b5b600182019050919050565b7f4f6e6c7920666163746f72792063616e20757064617465000000000000000000600082015250565b60006134f0601783612a8c565b91506134fb826134ba565b602082019050919050565b6000602082019050818103600083015261351f816134e3565b9050919050565b60008190508160005260206000209050919050565b60006020601f8301049050919050565b600082821b905092915050565b6000600883026135887fffffffffffffffffffffffffffffffffffffffffffffffffffffffffffffffff8261354b565b613592868361354b565b95508019841693508086168417925050509392505050565b6000819050919050565b60006135cf6135ca6135c584612b33565b6135aa565b612b33565b9050919050565b6000819050919050565b6135e9836135b4565b6135fd6135f5826135d6565b848454613558565b825550505050565b600090565b613612613605565b61361d8184846135e0565b505050565b5b818110156136415761363660008261360a565b600181019050613623565b5050565b601f8211156136865761365781613526565b6136608461353b565b8101602085101561366f578190505b61368361367b8561353b565b830182613622565b50505b505050565b600082821c905092915050565b60006136a96000198460080261368b565b1980831691505092915050565b60006136c28383613698565b9150826002028217905092915050565b6136db82612a81565b67ffffffffffffffff8111156136f4576136f3612e5a565b5b6136fe82546131d3565b613709828285613645565b600060209050601f83116001811461373c576000841561372a578287015190505b61373485826136b6565b86555061379c565b601f19841661374a86613526565b60005b828110156137725784890151825560018201915060208501945060208101905061374d565b8683101561378f578489015161378b601f891682613698565b8355505b6001600288020188555050505b505050505050565b600060608201905081810360008301526137be8186612ad8565b905081810360208301526137d28185612ad8565b90506137e16040830184612bc8565b949350505050565b600081519050919050565b600082825260208201905092915050565b6000613810826137e9565b61381a81856137f4565b935061382a818560208601612a9d565b61383381612ac7565b840191505092915050565b60006080820190506138536000830187612bc8565b6138606020830186612bc8565b61386d6040830185612c5e565b818103606083015261387f8184613805565b905095945050505050565b600081519050613899816129f2565b92915050565b6000602082840312156138b5576138b46129bc565b5b60006138c38482850161388a565b91505092915050565b600081905092915050565b60006138e282612a81565b6138ec81856138cc565b93506138fc818560208601612a9d565b80840191505092915050565b600061391482856138d7565b915061392082846138d7565b91508190509392505050565b600061393782612b33565b915061394283612b33565b925082820390508181111561395a57613959613443565b5b92915050565b7f4e487b7100000000000000000000000000000000000000000000000000000000600052603160045260246000fd5b7f4e487b7100000000000000000000000000000000000000000000000000000000600052601260045260246000fdfea264697066735822122084fb40963ad0e66e26778a06adc78872d76b9dff9e15dfcfca253cd09b572eab64736f6c634300081b0033",
  "linkReferences": {},
  "deployedLinkReferences": {}
}