{
  "_format": "hh-sol-artifact-1",
  "contractName": "MVerOriginal",
  "sourceName": "contracts/MVer.sol",
  "abi": [
    {
      "inputs": [],
      "stateMutability": "nonpayable",
      "type": "constructor"
    },
    {
      "inputs": [],
      "name": "ERC721EnumerableForbiddenBatchMint",
      "type": "error"
    },
    {
      "inputs": [
        {
          "internalType": "address",
          "name": "sender",
          "type": "address"
        },
        {
          "internalType": "uint256",
          "name": "tokenId",
          "type": "uint256"
        },
        {
          "internalType": "address",
          "name": "owner",
          "type": "address"
        }
      ],
      "name": "ERC721IncorrectOwner",
      "type": "error"
    },
    {
      "inputs": [
        {
          "internalType": "address",
          "name": "operator",
          "type": "address"
        },
        {
          "internalType": "uint256",
          "name": "tokenId",
          "type": "uint256"
        }
      ],
      "name": "ERC721InsufficientApproval",
      "type": "error"
    },
    {
      "inputs": [
        {
          "internalType": "address",
          "name": "approver",
          "type": "address"
        }
      ],
      "name": "ERC721InvalidApprover",
      "type": "error"
    },
    {
      "inputs": [
        {
          "internalType": "address",
          "name": "operator",
          "type": "address"
        }
      ],
      "name": "ERC721InvalidOperator",
      "type": "error"
    },
    {
      "inputs": [
        {
          "internalType": "address",
          "name": "owner",
          "type": "address"
        }
      ],
      "name": "ERC721InvalidOwner",
      "type": "error"
    },
    {
      "inputs": [
        {
          "internalType": "address",
          "name": "receiver",
          "type": "address"
        }
      ],
      "name": "ERC721InvalidReceiver",
      "type": "error"
    },
    {
      "inputs": [
        {
          "internalType": "address",
          "name": "sender",
          "type": "address"
        }
      ],
      "name": "ERC721InvalidSender",
      "type": "error"
    },
    {
      "inputs": [
        {
          "internalType": "uint256",
          "name": "tokenId",
          "type": "uint256"
        }
      ],
      "name": "ERC721NonexistentToken",
      "type": "error"
    },
    {
      "inputs": [
        {
          "internalType": "address",
          "name": "owner",
          "type": "address"
        },
        {
          "internalType": "uint256",
          "name": "index",
          "type": "uint256"
        }
      ],
      "name": "ERC721OutOfBoundsIndex",
      "type": "error"
    },
    {
      "anonymous": false,
      "inputs": [
        {
          "indexed": true,
          "internalType": "address",
          "name": "owner",
          "type": "address"
        },
        {
          "indexed": true,
          "internalType": "address",
          "name": "approved",
          "type": "address"
        },
        {
          "indexed": true,
          "internalType": "uint256",
          "name": "tokenId",
          "type": "uint256"
        }
      ],
      "name": "Approval",
      "type": "event"
    },
    {
      "anonymous": false,
      "inputs": [
        {
          "indexed": true,
          "internalType": "address",
          "name": "owner",
          "type": "address"
        },
        {
          "indexed": true,
          "internalType": "address",
          "name": "operator",
          "type": "address"
        },
        {
          "indexed": false,
          "internalType": "bool",
          "name": "approved",
          "type": "bool"
        }
      ],
      "name": "ApprovalForAll",
      "type": "event"
    },
    {
      "anonymous": false,
      "inputs": [
        {
          "indexed": false,
          "internalType": "uint256",
          "name": "_fromTokenId",
          "type": "uint256"
        },
        {
          "indexed": false,
          "internalType": "uint256",
          "name": "_toTokenId",
          "type": "uint256"
        }
      ],
      "name": "BatchMetadataUpdate",
      "type": "event"
    },
    {
      "anonymous": false,
      "inputs": [
        {
          "indexed": true,
          "internalType": "uint256",
          "name": "tokenId",
          "type": "uint256"
        },
        {
          "indexed": true,
          "internalType": "address",
          "name": "creator",
          "type": "address"
        },
        {
          "indexed": false,
          "internalType": "string",
          "name": "title",
          "type": "string"
        },
        {
          "indexed": false,
          "internalType": "string",
          "name": "genre",
          "type": "string"
        },
        {
          "indexed": false,
          "internalType": "address",
          "name": "collectibleContract",
          "type": "address"
        }
      ],
      "name": "ContentCreated",
      "type": "event"
    },
    {
      "anonymous": false,
      "inputs": [
        {
          "indexed": true,
          "internalType": "uint256",
          "name": "tokenId",
          "type": "uint256"
        },
        {
          "indexed": true,
          "internalType": "address",
          "name": "liker",
          "type": "address"
        },
        {
          "indexed": false,
          "internalType": "uint256",
          "name": "newLikeCount",
          "type": "uint256"
        }
      ],
      "name": "ContentLiked",
      "type": "event"
    },
    {
      "anonymous": false,
      "inputs": [
        {
          "indexed": false,
          "internalType": "uint256",
          "name": "_tokenId",
          "type": "uint256"
        }
      ],
      "name": "MetadataUpdate",
      "type": "event"
    },
    {
      "anonymous": false,
      "inputs": [
        {
          "indexed": true,
          "internalType": "address",
          "name": "from",
          "type": "address"
        },
        {
          "indexed": true,
          "internalType": "address",
          "name": "to",
          "type": "address"
        },
        {
          "indexed": true,
          "internalType": "uint256",
          "name": "tokenId",
          "type": "uint256"
        }
      ],
      "name": "Transfer",
      "type": "event"
    },
    {
      "inputs": [
        {
          "internalType": "address",
          "name": "to",
          "type": "address"
        },
        {
          "internalType": "uint256",
          "name": "tokenId",
          "type": "uint256"
        }
      ],
      "name": "approve",
      "outputs": [],
      "stateMutability": "nonpayable",
      "type": "function"
    },
    {
      "inputs": [
        {
          "internalType": "address",
          "name": "owner",
          "type": "address"
        }
      ],
      "name": "balanceOf",
      "outputs": [
        {
          "internalType": "uint256",
          "name": "",
          "type": "uint256"
        }
      ],
      "stateMutability": "view",
      "type": "function"
    },
    {
      "inputs": [
        {
          "internalType": "string",
          "name": "title",
          "type": "string"
        },
        {
          "internalType": "string",
          "name": "genre",
          "type": "string"
        },
        {
          "internalType": "string",
          "name": "uri",
          "type": "string"
        },
        {
          "internalType": "address",
          "name": "collectibleContract",
          "type": "address"
        }
      ],
      "name": "createContent",
      "outputs": [
        {
          "internalType": "uint256",
          "name": "",
          "type": "uint256"
        }
      ],
      "stateMutability": "nonpayable",
      "type": "function"
    },
    {
      "inputs": [
        {
          "internalType": "address",
          "name": "",
          "type": "address"
        },
        {
          "internalType": "uint256",
          "name": "",
          "type": "uint256"
        }
      ],
      "name": "creatorContent",
      "outputs": [
        {
          "internalType": "uint256",
          "name": "",
          "type": "uint256"
        }
      ],
      "stateMutability": "view",
      "type": "function"
    },
    {
      "inputs": [
        {
          "internalType": "uint256",
          "name": "tokenId",
          "type": "uint256"
        }
      ],
      "name": "getApproved",
      "outputs": [
        {
          "internalType": "address",
          "name": "",
          "type": "address"
        }
      ],
      "stateMutability": "view",
      "type": "function"
    },
    {
      "inputs": [
        {
          "internalType": "uint256",
          "name": "tokenId",
          "type": "uint256"
        }
      ],
      "name": "getLikes",
      "outputs": [
        {
          "internalType": "uint256",
          "name": "",
          "type": "uint256"
        }
      ],
      "stateMutability": "view",
      "type": "function"
    },
    {
      "inputs": [
        {
          "internalType": "uint256",
          "name": "tokenId",
          "type": "uint256"
        },
        {
          "internalType": "address",
          "name": "user",
          "type": "address"
        }
      ],
      "name": "hasLiked",
      "outputs": [
        {
          "internalType": "bool",
          "name": "",
          "type": "bool"
        }
      ],
      "stateMutability": "view",
      "type": "function"
    },
    {
      "inputs": [
        {
          "internalType": "address",
          "name": "owner",
          "type": "address"
        },
        {
          "internalType": "address",
          "name": "operator",
          "type": "address"
        }
      ],
      "name": "isApprovedForAll",
      "outputs": [
        {
          "internalType": "bool",
          "name": "",
          "type": "bool"
        }
      ],
      "stateMutability": "view",
      "type": "function"
    },
    {
      "inputs": [
        {
          "internalType": "uint256",
          "name": "tokenId",
          "type": "uint256"
        }
      ],
      "name": "likeContent",
      "outputs": [],
      "stateMutability": "nonpayable",
      "type": "function"
    },
    {
      "inputs": [],
      "name": "name",
      "outputs": [
        {
          "internalType": "string",
          "name": "",
          "type": "string"
        }
      ],
      "stateMutability": "view",
      "type": "function"
    },
    {
      "inputs": [
        {
          "internalType": "uint256",
          "name": "",
          "type": "uint256"
        }
      ],
      "name": "originals",
      "outputs": [
        {
          "internalType": "string",
          "name": "title",
          "type": "string"
        },
        {
          "internalType": "string",
          "name": "genre",
          "type": "string"
        },
        {
          "internalType": "uint256",
          "name": "createdAt",
          "type": "uint256"
        },
        {
          "internalType": "uint256",
          "name": "likes",
          "type": "uint256"
        },
        {
          "internalType": "address",
          "name": "collectibleContract",
          "type": "address"
        },
        {
          "internalType": "address",
          "name": "creator",
          "type": "address"
        }
      ],
      "stateMutability": "view",
      "type": "function"
    },
    {
      "inputs": [
        {
          "internalType": "uint256",
          "name": "tokenId",
          "type": "uint256"
        }
      ],
      "name": "ownerOf",
      "outputs": [
        {
          "internalType": "address",
          "name": "",
          "type": "address"
        }
      ],
      "stateMutability": "view",
      "type": "function"
    },
    {
      "inputs": [
        {
          "internalType": "address",
          "name": "from",
          "type": "address"
        },
        {
          "internalType": "address",
          "name": "to",
          "type": "address"
        },
        {
          "internalType": "uint256",
          "name": "tokenId",
          "type": "uint256"
        }
      ],
      "name": "safeTransferFrom",
      "outputs": [],
      "stateMutability": "nonpayable",
      "type": "function"
    },
    {
      "inputs": [
        {
          "internalType": "address",
          "name": "from",
          "type": "address"
        },
        {
          "internalType": "address",
          "name": "to",
          "type": "address"
        },
        {
          "internalType": "uint256",
          "name": "tokenId",
          "type": "uint256"
        },
        {
          "internalType": "bytes",
          "name": "data",
          "type": "bytes"
        }
      ],
      "name": "safeTransferFrom",
      "outputs": [],
      "stateMutability": "nonpayable",
      "type": "function"
    },
    {
      "inputs": [
        {
          "internalType": "address",
          "name": "operator",
          "type": "address"
        },
        {
          "internalType": "bool",
          "name": "approved",
          "type": "bool"
        }
      ],
      "name": "setApprovalForAll",
      "outputs": [],
      "stateMutability": "nonpayable",
      "type": "function"
    },
    {
      "inputs": [
        {
          "internalType": "bytes4",
          "name": "interfaceId",
          "type": "bytes4"
        }
      ],
      "name": "supportsInterface",
      "outputs": [
        {
          "internalType": "bool",
          "name": "",
          "type": "bool"
        }
      ],
      "stateMutability": "view",
      "type": "function"
    },
    {
      "inputs": [],
      "name": "symbol",
      "outputs": [
        {
          "internalType": "string",
          "name": "",
          "type": "string"
        }
      ],
      "stateMutability": "view",
      "type": "function"
    },
    {
      "inputs": [
        {
          "internalType": "uint256",
          "name": "index",
          "type": "uint256"
        }
      ],
      "name": "tokenByIndex",
      "outputs": [
        {
          "internalType": "uint256",
          "name": "",
          "type": "uint256"
        }
      ],
      "stateMutability": "view",
      "type": "function"
    },
    {
      "inputs": [
        {
          "internalType": "address",
          "name": "owner",
          "type": "address"
        },
        {
          "internalType": "uint256",
          "name": "index",
          "type": "uint256"
        }
      ],
      "name": "tokenOfOwnerByIndex",
      "outputs": [
        {
          "internalType": "uint256",
          "name": "",
          "type": "uint256"
        }
      ],
      "stateMutability": "view",
      "type": "function"
    },
    {
      "inputs": [
        {
          "internalType": "uint256",
          "name": "tokenId",
          "type": "uint256"
        }
      ],
      "name": "tokenURI",
      "outputs": [
        {
          "internalType": "string",
          "name": "",
          "type": "string"
        }
      ],
      "stateMutability": "view",
      "type": "function"
    },
    {
      "inputs": [],
      "name": "totalSupply",
      "outputs": [
        {
          "internalType": "uint256",
          "name": "",
          "type": "uint256"
        }
      ],
      "stateMutability": "view",
      "type": "function"
    },
    {
      "inputs": [
        {
          "internalType": "address",
          "name": "from",
          "type": "address"
        },
        {
          "internalType": "address",
          "name": "to",
          "type": "address"
        },
        {
          "internalType": "uint256",
          "name": "tokenId",
          "type": "uint256"
        }
      ],
      "name": "transferFrom",
      "outputs": [],
      "stateMutability": "nonpayable",
      "type": "function"
    }
  ],
  "bytecode": "0x608060405234801561001057600080fd5b506040518060400160405280600d81526020017f4d566572204f726967696e616c000000000000000000000000000000000000008152506040518060400160405280600581526020017f4d5645524f000000000000000000000000000000000000000000000000000000815250816000908161008c91906102f4565b50806001908161009c91906102f4565b5050506103c6565b600081519050919050565b7f4e487b7100000000000000000000000000000000000000000000000000000000600052604160045260246000fd5b7f4e487b7100000000000000000000000000000000000000000000000000000000600052602260045260246000fd5b6000600282049050600182168061012557607f821691505b602082108103610138576101376100de565b5b50919050565b60008190508160005260206000209050919050565b60006020601f8301049050919050565b600082821b905092915050565b6000600883026101a07fffffffffffffffffffffffffffffffffffffffffffffffffffffffffffffffff82610163565b6101aa8683610163565b95508019841693508086168417925050509392505050565b6000819050919050565b6000819050919050565b60006101f16101ec6101e7846101c2565b6101cc565b6101c2565b9050919050565b6000819050919050565b61020b836101d6565b61021f610217826101f8565b848454610170565b825550505050565b600090565b610234610227565b61023f818484610202565b505050565b5b818110156102635761025860008261022c565b600181019050610245565b5050565b601f8211156102a8576102798161013e565b61028284610153565b81016020851015610291578190505b6102a561029d85610153565b830182610244565b50505b505050565b600082821c905092915050565b60006102cb600019846008026102ad565b1980831691505092915050565b60006102e483836102ba565b9150826002028217905092915050565b6102fd826100a4565b67ffffffffffffffff811115610316576103156100af565b5b610320825461010d565b61032b828285610267565b600060209050601f83116001811461035e576000841561034c578287015190505b61035685826102d8565b8655506103be565b601f19841661036c8661013e565b60005b828110156103945784890151825560018201915060208501945060208101905061036f565b868310156103b157848901516103ad601f8916826102ba565b8355505b6001600288020188555050505b505050505050565b6134cc806103d56000396000f3fe608060405234801561001057600080fd5b50600436106101425760003560e01c80636a480eb8116100b8578063a22cb4651161007c578063a22cb465146103c1578063ac446a2d146103dd578063b88d4fde14610412578063c87b56dd1461042e578063d3523ede1461045e578063e985e9c51461048e57610142565b80636a480eb8146102e357806370a08231146103135780638fb7092c1461034357806395d89b4114610373578063a209081e1461039157610142565b806323b872dd1161010a57806323b872dd146101ff5780632f745c591461021b57806342842e0e1461024b5780634f6ccce7146102675780635f37cd61146102975780636352211e146102b357610142565b806301ffc9a71461014757806306fdde0314610177578063081812fc14610195578063095ea7b3146101c557806318160ddd146101e1575b600080fd5b610161600480360381019061015c9190612667565b6104be565b60405161016e91906126af565b60405180910390f35b61017f6104d0565b60405161018c919061275a565b60405180910390f35b6101af60048036038101906101aa91906127b2565b610562565b6040516101bc9190612820565b60405180910390f35b6101df60048036038101906101da9190612867565b61057e565b005b6101e9610594565b6040516101f691906128b6565b60405180910390f35b610219600480360381019061021491906128d1565b6105a1565b005b61023560048036038101906102309190612867565b6106a3565b60405161024291906128b6565b60405180910390f35b610265600480360381019061026091906128d1565b61074c565b005b610281600480360381019061027c91906127b2565b61076c565b60405161028e91906128b6565b60405180910390f35b6102b160048036038101906102ac91906127b2565b6107e2565b005b6102cd60048036038101906102c891906127b2565b6109f4565b6040516102da9190612820565b60405180910390f35b6102fd60048036038101906102f89190612867565b610a06565b60405161030a91906128b6565b60405180910390f35b61032d60048036038101906103289190612924565b610a37565b60405161033a91906128b6565b60405180910390f35b61035d60048036038101906103589190612951565b610af1565b60405161036a91906126af565b60405180910390f35b61037b610b59565b604051610388919061275a565b60405180910390f35b6103ab60048036038101906103a691906127b2565b610beb565b6040516103b891906128b6565b60405180910390f35b6103db60048036038101906103d691906129bd565b610c81565b005b6103f760048036038101906103f291906127b2565b610c97565b604051610409969594939291906129fd565b60405180910390f35b61042c60048036038101906104279190612ba1565b610e23565b005b610448600480360381019061044391906127b2565b610e48565b604051610455919061275a565b60405180910390f35b61047860048036038101906104739190612cc5565b610e5a565b60405161048591906128b6565b60405180910390f35b6104a860048036038101906104a39190612d80565b611092565b6040516104b591906126af565b60405180910390f35b60006104c982611126565b9050919050565b6060600080546104df90612def565b80601f016020809104026020016040519081016040528092919081815260200182805461050b90612def565b80156105585780601f1061052d57610100808354040283529160200191610558565b820191906000526020600020905b81548152906001019060200180831161053b57829003601f168201915b5050505050905090565b600061056d826111a0565b5061057782611228565b9050919050565b610590828261058b611265565b61126d565b5050565b6000600980549050905090565b600073ffffffffffffffffffffffffffffffffffffffff168273ffffffffffffffffffffffffffffffffffffffff16036106135760006040517f64a0ae9200000000000000000000000000000000000000000000000000000000815260040161060a9190612820565b60405180910390fd5b60006106278383610622611265565b61127f565b90508373ffffffffffffffffffffffffffffffffffffffff168173ffffffffffffffffffffffffffffffffffffffff161461069d578382826040517f64283d7b00000000000000000000000000000000000000000000000000000000815260040161069493929190612e20565b60405180910390fd5b50505050565b60006106ae83610a37565b82106106f35782826040517fa57d13dc0000000000000000000000000000000000000000000000000000000081526004016106ea929190612e57565b60405180910390fd5b600760008473ffffffffffffffffffffffffffffffffffffffff1673ffffffffffffffffffffffffffffffffffffffff168152602001908152602001600020600083815260200190815260200160002054905092915050565b61076783838360405180602001604052806000815250610e23565b505050565b6000610776610594565b82106107bc576000826040517fa57d13dc0000000000000000000000000000000000000000000000000000000081526004016107b3929190612e57565b60405180910390fd5b600982815481106107d0576107cf612e80565b5b90600052602060002001549050919050565b600073ffffffffffffffffffffffffffffffffffffffff1661080382611295565b73ffffffffffffffffffffffffffffffffffffffff1603610859576040517f08c379a000000000000000000000000000000000000000000000000000000000815260040161085090612efb565b60405180910390fd5b600d600082815260200190815260200160002060003373ffffffffffffffffffffffffffffffffffffffff1673ffffffffffffffffffffffffffffffffffffffff16815260200190815260200160002060009054906101000a900460ff16156108f7576040517f08c379a00000000000000000000000000000000000000000000000000000000081526004016108ee90612f67565b60405180910390fd5b600c6000828152602001908152602001600020600301600081548092919061091e90612fb6565b91905055506001600d600083815260200190815260200160002060003373ffffffffffffffffffffffffffffffffffffffff1673ffffffffffffffffffffffffffffffffffffffff16815260200190815260200160002060006101000a81548160ff0219169083151502179055503373ffffffffffffffffffffffffffffffffffffffff16817f47206ae22e39c8ecec1df74b7eec36799eb23c1b380fa8b871a75063fb3f881c600c6000858152602001908152602001600020600301546040516109e991906128b6565b60405180910390a350565b60006109ff826111a0565b9050919050565b600e6020528160005260406000208181548110610a2257600080fd5b90600052602060002001600091509150505481565b60008073ffffffffffffffffffffffffffffffffffffffff168273ffffffffffffffffffffffffffffffffffffffff1603610aaa5760006040517f89c62b64000000000000000000000000000000000000000000000000000000008152600401610aa19190612820565b60405180910390fd5b600360008373ffffffffffffffffffffffffffffffffffffffff1673ffffffffffffffffffffffffffffffffffffffff168152602001908152602001600020549050919050565b6000600d600084815260200190815260200160002060008373ffffffffffffffffffffffffffffffffffffffff1673ffffffffffffffffffffffffffffffffffffffff16815260200190815260200160002060009054906101000a900460ff16905092915050565b606060018054610b6890612def565b80601f0160208091040260200160405190810160405280929190818152602001828054610b9490612def565b8015610be15780601f10610bb657610100808354040283529160200191610be1565b820191906000526020600020905b815481529060010190602001808311610bc457829003601f168201915b5050505050905090565b60008073ffffffffffffffffffffffffffffffffffffffff16610c0d83611295565b73ffffffffffffffffffffffffffffffffffffffff1603610c63576040517f08c379a0000000000000000000000000000000000000000000000000000000008152600401610c5a90612efb565b60405180910390fd5b600c6000838152602001908152602001600020600301549050919050565b610c93610c8c611265565b83836112d2565b5050565b600c602052806000526040600020600091509050806000018054610cba90612def565b80601f0160208091040260200160405190810160405280929190818152602001828054610ce690612def565b8015610d335780601f10610d0857610100808354040283529160200191610d33565b820191906000526020600020905b815481529060010190602001808311610d1657829003601f168201915b505050505090806001018054610d4890612def565b80601f0160208091040260200160405190810160405280929190818152602001828054610d7490612def565b8015610dc15780601f10610d9657610100808354040283529160200191610dc1565b820191906000526020600020905b815481529060010190602001808311610da457829003601f168201915b5050505050908060020154908060030154908060040160009054906101000a900473ffffffffffffffffffffffffffffffffffffffff16908060050160009054906101000a900473ffffffffffffffffffffffffffffffffffffffff16905086565b610e2e8484846105a1565b610e42610e39611265565b85858585611441565b50505050565b6060610e53826115f2565b9050919050565b6000600b6000815480929190610e6f90612fb6565b91905055506000600b549050610e853382611705565b610e8f8185611723565b6040518060c00160405280878152602001868152602001428152602001600081526020018473ffffffffffffffffffffffffffffffffffffffff1681526020013373ffffffffffffffffffffffffffffffffffffffff16815250600c60008381526020019081526020016000206000820151816000019081610f1191906131aa565b506020820151816001019081610f2791906131aa565b50604082015181600201556060820151816003015560808201518160040160006101000a81548173ffffffffffffffffffffffffffffffffffffffff021916908373ffffffffffffffffffffffffffffffffffffffff16021790555060a08201518160050160006101000a81548173ffffffffffffffffffffffffffffffffffffffff021916908373ffffffffffffffffffffffffffffffffffffffff160217905550905050600e60003373ffffffffffffffffffffffffffffffffffffffff1673ffffffffffffffffffffffffffffffffffffffff1681526020019081526020016000208190806001815401808255809150506001900390600052602060002001600090919091909150553373ffffffffffffffffffffffffffffffffffffffff16817fff5404a601409915c2f36732d57f5c31483a82aafc475847c5e940baf0f8096f88888760405161107e9392919061327c565b60405180910390a380915050949350505050565b6000600560008473ffffffffffffffffffffffffffffffffffffffff1673ffffffffffffffffffffffffffffffffffffffff16815260200190815260200160002060008373ffffffffffffffffffffffffffffffffffffffff1673ffffffffffffffffffffffffffffffffffffffff16815260200190815260200160002060009054906101000a900460ff16905092915050565b60007f780e9d63000000000000000000000000000000000000000000000000000000007bffffffffffffffffffffffffffffffffffffffffffffffffffffffff1916827bffffffffffffffffffffffffffffffffffffffffffffffffffffffff1916148061119957506111988261177f565b5b9050919050565b6000806111ac83611295565b9050600073ffffffffffffffffffffffffffffffffffffffff168173ffffffffffffffffffffffffffffffffffffffff160361121f57826040517f7e27328900000000000000000000000000000000000000000000000000000000815260040161121691906128b6565b60405180910390fd5b80915050919050565b60006004600083815260200190815260200160002060009054906101000a900473ffffffffffffffffffffffffffffffffffffffff169050919050565b600033905090565b61127a83838360016117e0565b505050565b600061128c8484846119a5565b90509392505050565b60006002600083815260200190815260200160002060009054906101000a900473ffffffffffffffffffffffffffffffffffffffff169050919050565b600073ffffffffffffffffffffffffffffffffffffffff168273ffffffffffffffffffffffffffffffffffffffff160361134357816040517f5b08ba1800000000000000000000000000000000000000000000000000000000815260040161133a9190612820565b60405180910390fd5b80600560008573ffffffffffffffffffffffffffffffffffffffff1673ffffffffffffffffffffffffffffffffffffffff16815260200190815260200160002060008473ffffffffffffffffffffffffffffffffffffffff1673ffffffffffffffffffffffffffffffffffffffff16815260200190815260200160002060006101000a81548160ff0219169083151502179055508173ffffffffffffffffffffffffffffffffffffffff168373ffffffffffffffffffffffffffffffffffffffff167f17307eab39ab6107e8899845ad3d59bd9653f200f220920489ca2b5937696c318360405161143491906126af565b60405180910390a3505050565b60008373ffffffffffffffffffffffffffffffffffffffff163b11156115eb578273ffffffffffffffffffffffffffffffffffffffff1663150b7a02868685856040518563ffffffff1660e01b81526004016114a09493929190613316565b6020604051808303816000875af19250505080156114dc57506040513d601f19601f820116820180604052508101906114d99190613377565b60015b611560573d806000811461150c576040519150601f19603f3d011682016040523d82523d6000602084013e611511565b606091505b50600081510361155857836040517f64a0ae9200000000000000000000000000000000000000000000000000000000815260040161154f9190612820565b60405180910390fd5b805181602001fd5b63150b7a0260e01b7bffffffffffffffffffffffffffffffffffffffffffffffffffffffff1916817bffffffffffffffffffffffffffffffffffffffffffffffffffffffff1916146115e957836040517f64a0ae920000000000000000000000000000000000000000000000000000000081526004016115e09190612820565b60405180910390fd5b505b5050505050565b60606115fd826111a0565b50600060066000848152602001908152602001600020805461161e90612def565b80601f016020809104026020016040519081016040528092919081815260200182805461164a90612def565b80156116975780601f1061166c57610100808354040283529160200191611697565b820191906000526020600020905b81548152906001019060200180831161167a57829003601f168201915b5050505050905060006116a8611ac2565b905060008151036116bd578192505050611700565b6000825111156116f25780826040516020016116da9291906133e0565b60405160208183030381529060405292505050611700565b6116fb84611ad9565b925050505b919050565b61171f828260405180602001604052806000815250611b42565b5050565b8060066000848152602001908152602001600020908161174391906131aa565b507ff8e1a15aba9398e019f0b49df1a4fde98ee17ae345cb5f6b5e2c27f5033e8ce78260405161177391906128b6565b60405180910390a15050565b6000634906490660e01b7bffffffffffffffffffffffffffffffffffffffffffffffffffffffff1916827bffffffffffffffffffffffffffffffffffffffffffffffffffffffff191614806117d957506117d882611b66565b5b9050919050565b80806118195750600073ffffffffffffffffffffffffffffffffffffffff168273ffffffffffffffffffffffffffffffffffffffff1614155b1561194d576000611829846111a0565b9050600073ffffffffffffffffffffffffffffffffffffffff168373ffffffffffffffffffffffffffffffffffffffff161415801561189457508273ffffffffffffffffffffffffffffffffffffffff168173ffffffffffffffffffffffffffffffffffffffff1614155b80156118a757506118a58184611092565b155b156118e957826040517fa9fbf51f0000000000000000000000000000000000000000000000000000000081526004016118e09190612820565b60405180910390fd5b811561194b57838573ffffffffffffffffffffffffffffffffffffffff168273ffffffffffffffffffffffffffffffffffffffff167f8c5be1e5ebec7d5bd14f71427d1e84f3dd0314c0f7b2291e5b200ac8c7c3b92560405160405180910390a45b505b836004600085815260200190815260200160002060006101000a81548173ffffffffffffffffffffffffffffffffffffffff021916908373ffffffffffffffffffffffffffffffffffffffff16021790555050505050565b6000806119b3858585611c48565b9050600073ffffffffffffffffffffffffffffffffffffffff168173ffffffffffffffffffffffffffffffffffffffff16036119f7576119f284611e62565b611a36565b8473ffffffffffffffffffffffffffffffffffffffff168173ffffffffffffffffffffffffffffffffffffffff1614611a3557611a348185611eab565b5b5b600073ffffffffffffffffffffffffffffffffffffffff168573ffffffffffffffffffffffffffffffffffffffff1603611a7857611a7384611f96565b611ab7565b8473ffffffffffffffffffffffffffffffffffffffff168173ffffffffffffffffffffffffffffffffffffffff1614611ab657611ab58585612067565b5b5b809150509392505050565b606060405180602001604052806000815250905090565b6060611ae4826111a0565b506000611aef611ac2565b90506000815111611b0f5760405180602001604052806000815250611b3a565b80611b19846120f2565b604051602001611b2a9291906133e0565b6040516020818303038152906040525b915050919050565b611b4c83836121c0565b611b61611b57611265565b6000858585611441565b505050565b60007f80ac58cd000000000000000000000000000000000000000000000000000000007bffffffffffffffffffffffffffffffffffffffffffffffffffffffff1916827bffffffffffffffffffffffffffffffffffffffffffffffffffffffff19161480611c3157507f5b5e139f000000000000000000000000000000000000000000000000000000007bffffffffffffffffffffffffffffffffffffffffffffffffffffffff1916827bffffffffffffffffffffffffffffffffffffffffffffffffffffffff1916145b80611c415750611c40826122b9565b5b9050919050565b600080611c5484611295565b9050600073ffffffffffffffffffffffffffffffffffffffff168373ffffffffffffffffffffffffffffffffffffffff1614611c9657611c95818486612323565b5b600073ffffffffffffffffffffffffffffffffffffffff168173ffffffffffffffffffffffffffffffffffffffff1614611d2757611cd86000856000806117e0565b6001600360008373ffffffffffffffffffffffffffffffffffffffff1673ffffffffffffffffffffffffffffffffffffffff168152602001908152602001600020600082825403925050819055505b600073ffffffffffffffffffffffffffffffffffffffff168573ffffffffffffffffffffffffffffffffffffffff1614611daa576001600360008773ffffffffffffffffffffffffffffffffffffffff1673ffffffffffffffffffffffffffffffffffffffff168152602001908152602001600020600082825401925050819055505b846002600086815260200190815260200160002060006101000a81548173ffffffffffffffffffffffffffffffffffffffff021916908373ffffffffffffffffffffffffffffffffffffffff160217905550838573ffffffffffffffffffffffffffffffffffffffff168273ffffffffffffffffffffffffffffffffffffffff167fddf252ad1be2c89b69c2b068fc378daa952ba7f163c4a11628f55a4df523b3ef60405160405180910390a4809150509392505050565b600980549050600a600083815260200190815260200160002081905550600981908060018154018082558091505060019003906000526020600020016000909190919091505550565b6000611eb683610a37565b90506000600860008481526020019081526020016000205490506000600760008673ffffffffffffffffffffffffffffffffffffffff1673ffffffffffffffffffffffffffffffffffffffff1681526020019081526020016000209050828214611f625760008160008581526020019081526020016000205490508082600085815260200190815260200160002081905550826008600083815260200190815260200160002081905550505b6008600085815260200190815260200160002060009055806000848152602001908152602001600020600090555050505050565b60006001600980549050611faa9190613404565b90506000600a6000848152602001908152602001600020549050600060098381548110611fda57611fd9612e80565b5b906000526020600020015490508060098381548110611ffc57611ffb612e80565b5b906000526020600020018190555081600a600083815260200190815260200160002081905550600a600085815260200190815260200160002060009055600980548061204b5761204a613438565b5b6001900381819060005260206000200160009055905550505050565b6000600161207484610a37565b61207e9190613404565b905081600760008573ffffffffffffffffffffffffffffffffffffffff1673ffffffffffffffffffffffffffffffffffffffff168152602001908152602001600020600083815260200190815260200160002081905550806008600084815260200190815260200160002081905550505050565b606060006001612101846123e7565b01905060008167ffffffffffffffff8111156121205761211f612a76565b5b6040519080825280601f01601f1916602001820160405280156121525781602001600182028036833780820191505090505b509050600082602001820190505b6001156121b5578080600190039150507f3031323334353637383961626364656600000000000000000000000000000000600a86061a8153600a85816121a9576121a8613467565b5b04945060008503612160575b819350505050919050565b600073ffffffffffffffffffffffffffffffffffffffff168273ffffffffffffffffffffffffffffffffffffffff16036122325760006040517f64a0ae920000000000000000000000000000000000000000000000000000000081526004016122299190612820565b60405180910390fd5b60006122408383600061127f565b9050600073ffffffffffffffffffffffffffffffffffffffff168173ffffffffffffffffffffffffffffffffffffffff16146122b45760006040517f73c6ac6e0000000000000000000000000000000000000000000000000000000081526004016122ab9190612820565b60405180910390fd5b505050565b60007f01ffc9a7000000000000000000000000000000000000000000000000000000007bffffffffffffffffffffffffffffffffffffffffffffffffffffffff1916827bffffffffffffffffffffffffffffffffffffffffffffffffffffffff1916149050919050565b61232e83838361253a565b6123e257600073ffffffffffffffffffffffffffffffffffffffff168373ffffffffffffffffffffffffffffffffffffffff16036123a357806040517f7e27328900000000000000000000000000000000000000000000000000000000815260040161239a91906128b6565b60405180910390fd5b81816040517f177e802f0000000000000000000000000000000000000000000000000000000081526004016123d9929190612e57565b60405180910390fd5b505050565b600080600090507a184f03e93ff9f4daa797ed6e38ed64bf6a1f0100000000000000008310612445577a184f03e93ff9f4daa797ed6e38ed64bf6a1f010000000000000000838161243b5761243a613467565b5b0492506040810190505b6d04ee2d6d415b85acef81000000008310612482576d04ee2d6d415b85acef8100000000838161247857612477613467565b5b0492506020810190505b662386f26fc1000083106124b157662386f26fc1000083816124a7576124a6613467565b5b0492506010810190505b6305f5e10083106124da576305f5e10083816124d0576124cf613467565b5b0492506008810190505b61271083106124ff5761271083816124f5576124f4613467565b5b0492506004810190505b60648310612522576064838161251857612517613467565b5b0492506002810190505b600a8310612531576001810190505b80915050919050565b60008073ffffffffffffffffffffffffffffffffffffffff168373ffffffffffffffffffffffffffffffffffffffff16141580156125f257508273ffffffffffffffffffffffffffffffffffffffff168473ffffffffffffffffffffffffffffffffffffffff1614806125b357506125b28484611092565b5b806125f157508273ffffffffffffffffffffffffffffffffffffffff166125d983611228565b73ffffffffffffffffffffffffffffffffffffffff16145b5b90509392505050565b6000604051905090565b600080fd5b600080fd5b60007fffffffff0000000000000000000000000000000000000000000000000000000082169050919050565b6126448161260f565b811461264f57600080fd5b50565b6000813590506126618161263b565b92915050565b60006020828403121561267d5761267c612605565b5b600061268b84828501612652565b91505092915050565b60008115159050919050565b6126a981612694565b82525050565b60006020820190506126c460008301846126a0565b92915050565b600081519050919050565b600082825260208201905092915050565b60005b838110156127045780820151818401526020810190506126e9565b60008484015250505050565b6000601f19601f8301169050919050565b600061272c826126ca565b61273681856126d5565b93506127468185602086016126e6565b61274f81612710565b840191505092915050565b600060208201905081810360008301526127748184612721565b905092915050565b6000819050919050565b61278f8161277c565b811461279a57600080fd5b50565b6000813590506127ac81612786565b92915050565b6000602082840312156127c8576127c7612605565b5b60006127d68482850161279d565b91505092915050565b600073ffffffffffffffffffffffffffffffffffffffff82169050919050565b600061280a826127df565b9050919050565b61281a816127ff565b82525050565b60006020820190506128356000830184612811565b92915050565b612844816127ff565b811461284f57600080fd5b50565b6000813590506128618161283b565b92915050565b6000806040838503121561287e5761287d612605565b5b600061288c85828601612852565b925050602061289d8582860161279d565b9150509250929050565b6128b08161277c565b82525050565b60006020820190506128cb60008301846128a7565b92915050565b6000806000606084860312156128ea576128e9612605565b5b60006128f886828701612852565b935050602061290986828701612852565b925050604061291a8682870161279d565b9150509250925092565b60006020828403121561293a57612939612605565b5b600061294884828501612852565b91505092915050565b6000806040838503121561296857612967612605565b5b60006129768582860161279d565b925050602061298785828601612852565b9150509250929050565b61299a81612694565b81146129a557600080fd5b50565b6000813590506129b781612991565b92915050565b600080604083850312156129d4576129d3612605565b5b60006129e285828601612852565b92505060206129f3858286016129a8565b9150509250929050565b600060c0820190508181036000830152612a178189612721565b90508181036020830152612a2b8188612721565b9050612a3a60408301876128a7565b612a4760608301866128a7565b612a546080830185612811565b612a6160a0830184612811565b979650505050505050565b600080fd5b600080fd5b7f4e487b7100000000000000000000000000000000000000000000000000000000600052604160045260246000fd5b612aae82612710565b810181811067ffffffffffffffff82111715612acd57612acc612a76565b5b80604052505050565b6000612ae06125fb565b9050612aec8282612aa5565b919050565b600067ffffffffffffffff821115612b0c57612b0b612a76565b5b612b1582612710565b9050602081019050919050565b82818337600083830152505050565b6000612b44612b3f84612af1565b612ad6565b905082815260208101848484011115612b6057612b5f612a71565b5b612b6b848285612b22565b509392505050565b600082601f830112612b8857612b87612a6c565b5b8135612b98848260208601612b31565b91505092915050565b60008060008060808587031215612bbb57612bba612605565b5b6000612bc987828801612852565b9450506020612bda87828801612852565b9350506040612beb8782880161279d565b925050606085013567ffffffffffffffff811115612c0c57612c0b61260a565b5b612c1887828801612b73565b91505092959194509250565b600067ffffffffffffffff821115612c3f57612c3e612a76565b5b612c4882612710565b9050602081019050919050565b6000612c68612c6384612c24565b612ad6565b905082815260208101848484011115612c8457612c83612a71565b5b612c8f848285612b22565b509392505050565b600082601f830112612cac57612cab612a6c565b5b8135612cbc848260208601612c55565b91505092915050565b60008060008060808587031215612cdf57612cde612605565b5b600085013567ffffffffffffffff811115612cfd57612cfc61260a565b5b612d0987828801612c97565b945050602085013567ffffffffffffffff811115612d2a57612d2961260a565b5b612d3687828801612c97565b935050604085013567ffffffffffffffff811115612d5757612d5661260a565b5b612d6387828801612c97565b9250506060612d7487828801612852565b91505092959194509250565b60008060408385031215612d9757612d96612605565b5b6000612da585828601612852565b9250506020612db685828601612852565b9150509250929050565b7f4e487b7100000000000000000000000000000000000000000000000000000000600052602260045260246000fd5b60006002820490506001821680612e0757607f821691505b602082108103612e1a57612e19612dc0565b5b50919050565b6000606082019050612e356000830186612811565b612e4260208301856128a7565b612e4f6040830184612811565b949350505050565b6000604082019050612e6c6000830185612811565b612e7960208301846128a7565b9392505050565b7f4e487b7100000000000000000000000000000000000000000000000000000000600052603260045260246000fd5b7f436f6e74656e7420646f65736e27742065786973740000000000000000000000600082015250565b6000612ee56015836126d5565b9150612ef082612eaf565b602082019050919050565b60006020820190508181036000830152612f1481612ed8565b9050919050565b7f416c7265616479206c696b656400000000000000000000000000000000000000600082015250565b6000612f51600d836126d5565b9150612f5c82612f1b565b602082019050919050565b60006020820190508181036000830152612f8081612f44565b9050919050565b7f4e487b7100000000000000000000000000000000000000000000000000000000600052601160045260246000fd5b6000612fc18261277c565b91507fffffffffffffffffffffffffffffffffffffffffffffffffffffffffffffffff8203612ff357612ff2612f87565b5b600182019050919050565b60008190508160005260206000209050919050565b60006020601f8301049050919050565b600082821b905092915050565b6000600883026130607fffffffffffffffffffffffffffffffffffffffffffffffffffffffffffffffff82613023565b61306a8683613023565b95508019841693508086168417925050509392505050565b6000819050919050565b60006130a76130a261309d8461277c565b613082565b61277c565b9050919050565b6000819050919050565b6130c18361308c565b6130d56130cd826130ae565b848454613030565b825550505050565b600090565b6130ea6130dd565b6130f58184846130b8565b505050565b5b818110156131195761310e6000826130e2565b6001810190506130fb565b5050565b601f82111561315e5761312f81612ffe565b61313884613013565b81016020851015613147578190505b61315b61315385613013565b8301826130fa565b50505b505050565b600082821c905092915050565b600061318160001984600802613163565b1980831691505092915050565b600061319a8383613170565b9150826002028217905092915050565b6131b3826126ca565b67ffffffffffffffff8111156131cc576131cb612a76565b5b6131d68254612def565b6131e182828561311d565b600060209050601f8311600181146132145760008415613202578287015190505b61320c858261318e565b865550613274565b601f19841661322286612ffe565b60005b8281101561324a57848901518255600182019150602085019450602081019050613225565b868310156132675784890151613263601f891682613170565b8355505b6001600288020188555050505b505050505050565b600060608201905081810360008301526132968186612721565b905081810360208301526132aa8185612721565b90506132b96040830184612811565b949350505050565b600081519050919050565b600082825260208201905092915050565b60006132e8826132c1565b6132f281856132cc565b93506133028185602086016126e6565b61330b81612710565b840191505092915050565b600060808201905061332b6000830187612811565b6133386020830186612811565b61334560408301856128a7565b818103606083015261335781846132dd565b905095945050505050565b6000815190506133718161263b565b92915050565b60006020828403121561338d5761338c612605565b5b600061339b84828501613362565b91505092915050565b600081905092915050565b60006133ba826126ca565b6133c481856133a4565b93506133d48185602086016126e6565b80840191505092915050565b60006133ec82856133af565b91506133f882846133af565b91508190509392505050565b600061340f8261277c565b915061341a8361277c565b925082820390508181111561343257613431612f87565b5b92915050565b7f4e487b7100000000000000000000000000000000000000000000000000000000600052603160045260246000fd5b7f4e487b7100000000000000000000000000000000000000000000000000000000600052601260045260246000fdfea26469706673582212208ca30cc6fa17c1432723f0ace19eb8438285ec737e64e4abbe6a52a606b65b9264736f6c634300081b0033",
  "linkReferences": {},
  "deployedLinkReferences": {}
}