{
  "_format": "hh-sol-artifact-1",
  "contractName": "MVerOriginal",
  "sourceName": "contracts/MVer.sol",
  "abi": [
    {
      "inputs": [],
      "stateMutability": "nonpayable",
      "type": "constructor"
    },
    {
      "inputs": [],
      "name": "ERC721EnumerableForbiddenBatchMint",
      "type": "error"
    },
    {
      "inputs": [
        {
          "internalType": "address",
          "name": "sender",
          "type": "address"
        },
        {
          "internalType": "uint256",
          "name": "tokenId",
          "type": "uint256"
        },
        {
          "internalType": "address",
          "name": "owner",
          "type": "address"
        }
      ],
      "name": "ERC721IncorrectOwner",
      "type": "error"
    },
    {
      "inputs": [
        {
          "internalType": "address",
          "name": "operator",
          "type": "address"
        },
        {
          "internalType": "uint256",
          "name": "tokenId",
          "type": "uint256"
        }
      ],
      "name": "ERC721InsufficientApproval",
      "type": "error"
    },
    {
      "inputs": [
        {
          "internalType": "address",
          "name": "approver",
          "type": "address"
        }
      ],
      "name": "ERC721InvalidApprover",
      "type": "error"
    },
    {
      "inputs": [
        {
          "internalType": "address",
          "name": "operator",
          "type": "address"
        }
      ],
      "name": "ERC721InvalidOperator",
      "type": "error"
    },
    {
      "inputs": [
        {
          "internalType": "address",
          "name": "owner",
          "type": "address"
        }
      ],
      "name": "ERC721InvalidOwner",
      "type": "error"
    },
    {
      "inputs": [
        {
          "internalType": "address",
          "name": "receiver",
          "type": "address"
        }
      ],
      "name": "ERC721InvalidReceiver",
      "type": "error"
    },
    {
      "inputs": [
        {
          "internalType": "address",
          "name": "sender",
          "type": "address"
        }
      ],
      "name": "ERC721InvalidSender",
      "type": "error"
    },
    {
      "inputs": [
        {
          "internalType": "uint256",
          "name": "tokenId",
          "type": "uint256"
        }
      ],
      "name": "ERC721NonexistentToken",
      "type": "error"
    },
    {
      "inputs": [
        {
          "internalType": "address",
          "name": "owner",
          "type": "address"
        },
        {
          "internalType": "uint256",
          "name": "index",
          "type": "uint256"
        }
      ],
      "name": "ERC721OutOfBoundsIndex",
      "type": "error"
    },
    {
      "anonymous": false,
      "inputs": [
        {
          "indexed": true,
          "internalType": "address",
          "name": "owner",
          "type": "address"
        },
        {
          "indexed": true,
          "internalType": "address",
          "name": "approved",
          "type": "address"
        },
        {
          "indexed": true,
          "internalType": "uint256",
          "name": "tokenId",
          "type": "uint256"
        }
      ],
      "name": "Approval",
      "type": "event"
    },
    {
      "anonymous": false,
      "inputs": [
        {
          "indexed": true,
          "internalType": "address",
          "name": "owner",
          "type": "address"
        },
        {
          "indexed": true,
          "internalType": "address",
          "name": "operator",
          "type": "address"
        },
        {
          "indexed": false,
          "internalType": "bool",
          "name": "approved",
          "type": "bool"
        }
      ],
      "name": "ApprovalForAll",
      "type": "event"
    },
    {
      "anonymous": false,
      "inputs": [
        {
          "indexed": false,
          "internalType": "uint256",
          "name": "_fromTokenId",
          "type": "uint256"
        },
        {
          "indexed": false,
          "internalType": "uint256",
          "name": "_toTokenId",
          "type": "uint256"
        }
      ],
      "name": "BatchMetadataUpdate",
      "type": "event"
    },
    {
      "anonymous": false,
      "inputs": [
        {
          "indexed": true,
          "internalType": "uint256",
          "name": "tokenId",
          "type": "uint256"
        },
        {
          "indexed": true,
          "internalType": "address",
          "name": "creator",
          "type": "address"
        },
        {
          "indexed": false,
          "internalType": "string",
          "name": "title",
          "type": "string"
        },
        {
          "indexed": false,
          "internalType": "string",
          "name": "genre",
          "type": "string"
        },
        {
          "indexed": false,
          "internalType": "address",
          "name": "collectibleContract",
          "type": "address"
        }
      ],
      "name": "ContentCreated",
      "type": "event"
    },
    {
      "anonymous": false,
      "inputs": [
        {
          "indexed": true,
          "internalType": "uint256",
          "name": "tokenId",
          "type": "uint256"
        },
        {
          "indexed": true,
          "internalType": "address",
          "name": "liker",
          "type": "address"
        },
        {
          "indexed": false,
          "internalType": "uint256",
          "name": "newLikeCount",
          "type": "uint256"
        }
      ],
      "name": "ContentLiked",
      "type": "event"
    },
    {
      "anonymous": false,
      "inputs": [
        {
          "indexed": false,
          "internalType": "uint256",
          "name": "_tokenId",
          "type": "uint256"
        }
      ],
      "name": "MetadataUpdate",
      "type": "event"
    },
    {
      "anonymous": false,
      "inputs": [
        {
          "indexed": true,
          "internalType": "address",
          "name": "from",
          "type": "address"
        },
        {
          "indexed": true,
          "internalType": "address",
          "name": "to",
          "type": "address"
        },
        {
          "indexed": true,
          "internalType": "uint256",
          "name": "tokenId",
          "type": "uint256"
        }
      ],
      "name": "Transfer",
      "type": "event"
    },
    {
      "inputs": [
        {
          "internalType": "address",
          "name": "to",
          "type": "address"
        },
        {
          "internalType": "uint256",
          "name": "tokenId",
          "type": "uint256"
        }
      ],
      "name": "approve",
      "outputs": [],
      "stateMutability": "nonpayable",
      "type": "function"
    },
    {
      "inputs": [
        {
          "internalType": "address",
          "name": "owner",
          "type": "address"
        }
      ],
      "name": "balanceOf",
      "outputs": [
        {
          "internalType": "uint256",
          "name": "",
          "type": "uint256"
        }
      ],
      "stateMutability": "view",
      "type": "function"
    },
    {
      "inputs": [
        {
          "internalType": "string",
          "name": "title",
          "type": "string"
        },
        {
          "internalType": "string",
          "name": "genre",
          "type": "string"
        },
        {
          "internalType": "string",
          "name": "uri",
          "type": "string"
        },
        {
          "internalType": "address",
          "name": "collectibleContract",
          "type": "address"
        }
      ],
      "name": "createContent",
      "outputs": [
        {
          "internalType": "uint256",
          "name": "",
          "type": "uint256"
        }
      ],
      "stateMutability": "nonpayable",
      "type": "function"
    },
    {
      "inputs": [
        {
          "internalType": "address",
          "name": "",
          "type": "address"
        },
        {
          "internalType": "uint256",
          "name": "",
          "type": "uint256"
        }
      ],
      "name": "creatorContent",
      "outputs": [
        {
          "internalType": "uint256",
          "name": "",
          "type": "uint256"
        }
      ],
      "stateMutability": "view",
      "type": "function"
    },
    {
      "inputs": [
        {
          "internalType": "uint256",
          "name": "tokenId",
          "type": "uint256"
        }
      ],
      "name": "getApproved",
      "outputs": [
        {
          "internalType": "address",
          "name": "",
          "type": "address"
        }
      ],
      "stateMutability": "view",
      "type": "function"
    },
    {
      "inputs": [
        {
          "internalType": "uint256",
          "name": "tokenId",
          "type": "uint256"
        }
      ],
      "name": "getLikes",
      "outputs": [
        {
          "internalType": "uint256",
          "name": "",
          "type": "uint256"
        }
      ],
      "stateMutability": "view",
      "type": "function"
    },
    {
      "inputs": [
        {
          "internalType": "uint256",
          "name": "tokenId",
          "type": "uint256"
        },
        {
          "internalType": "address",
          "name": "user",
          "type": "address"
        }
      ],
      "name": "hasLiked",
      "outputs": [
        {
          "internalType": "bool",
          "name": "",
          "type": "bool"
        }
      ],
      "stateMutability": "view",
      "type": "function"
    },
    {
      "inputs": [
        {
          "internalType": "address",
          "name": "owner",
          "type": "address"
        },
        {
          "internalType": "address",
          "name": "operator",
          "type": "address"
        }
      ],
      "name": "isApprovedForAll",
      "outputs": [
        {
          "internalType": "bool",
          "name": "",
          "type": "bool"
        }
      ],
      "stateMutability": "view",
      "type": "function"
    },
    {
      "inputs": [
        {
          "internalType": "uint256",
          "name": "tokenId",
          "type": "uint256"
        }
      ],
      "name": "likeContent",
      "outputs": [],
      "stateMutability": "nonpayable",
      "type": "function"
    },
    {
      "inputs": [],
      "name": "name",
      "outputs": [
        {
          "internalType": "string",
          "name": "",
          "type": "string"
        }
      ],
      "stateMutability": "view",
      "type": "function"
    },
    {
      "inputs": [
        {
          "internalType": "uint256",
          "name": "",
          "type": "uint256"
        }
      ],
      "name": "originals",
      "outputs": [
        {
          "internalType": "string",
          "name": "title",
          "type": "string"
        },
        {
          "internalType": "string",
          "name": "genre",
          "type": "string"
        },
        {
          "internalType": "uint256",
          "name": "createdAt",
          "type": "uint256"
        },
        {
          "internalType": "uint256",
          "name": "likes",
          "type": "uint256"
        },
        {
          "internalType": "address",
          "name": "collectibleContract",
          "type": "address"
        },
        {
          "internalType": "address",
          "name": "creator",
          "type": "address"
        }
      ],
      "stateMutability": "view",
      "type": "function"
    },
    {
      "inputs": [
        {
          "internalType": "uint256",
          "name": "tokenId",
          "type": "uint256"
        }
      ],
      "name": "ownerOf",
      "outputs": [
        {
          "internalType": "address",
          "name": "",
          "type": "address"
        }
      ],
      "stateMutability": "view",
      "type": "function"
    },
    {
      "inputs": [
        {
          "internalType": "address",
          "name": "from",
          "type": "address"
        },
        {
          "internalType": "address",
          "name": "to",
          "type": "address"
        },
        {
          "internalType": "uint256",
          "name": "tokenId",
          "type": "uint256"
        }
      ],
      "name": "safeTransferFrom",
      "outputs": [],
      "stateMutability": "nonpayable",
      "type": "function"
    },
    {
      "inputs": [
        {
          "internalType": "address",
          "name": "from",
          "type": "address"
        },
        {
          "internalType": "address",
          "name": "to",
          "type": "address"
        },
        {
          "internalType": "uint256",
          "name": "tokenId",
          "type": "uint256"
        },
        {
          "internalType": "bytes",
          "name": "data",
          "type": "bytes"
        }
      ],
      "name": "safeTransferFrom",
      "outputs": [],
      "stateMutability": "nonpayable",
      "type": "function"
    },
    {
      "inputs": [
        {
          "internalType": "address",
          "name": "operator",
          "type": "address"
        },
        {
          "internalType": "bool",
          "name": "approved",
          "type": "bool"
        }
      ],
      "name": "setApprovalForAll",
      "outputs": [],
      "stateMutability": "nonpayable",
      "type": "function"
    },
    {
      "inputs": [
        {
          "internalType": "address",
          "name": "factory",
          "type": "address"
        },
        {
          "internalType": "bool",
          "name": "approved",
          "type": "bool"
        }
      ],
      "name": "setApprovalForFactory",
      "outputs": [],
      "stateMutability": "nonpayable",
      "type": "function"
    },
    {
      "inputs": [
        {
          "internalType": "bytes4",
          "name": "interfaceId",
          "type": "bytes4"
        }
      ],
      "name": "supportsInterface",
      "outputs": [
        {
          "internalType": "bool",
          "name": "",
          "type": "bool"
        }
      ],
      "stateMutability": "view",
      "type": "function"
    },
    {
      "inputs": [],
      "name": "symbol",
      "outputs": [
        {
          "internalType": "string",
          "name": "",
          "type": "string"
        }
      ],
      "stateMutability": "view",
      "type": "function"
    },
    {
      "inputs": [
        {
          "internalType": "uint256",
          "name": "index",
          "type": "uint256"
        }
      ],
      "name": "tokenByIndex",
      "outputs": [
        {
          "internalType": "uint256",
          "name": "",
          "type": "uint256"
        }
      ],
      "stateMutability": "view",
      "type": "function"
    },
    {
      "inputs": [
        {
          "internalType": "address",
          "name": "owner",
          "type": "address"
        },
        {
          "internalType": "uint256",
          "name": "index",
          "type": "uint256"
        }
      ],
      "name": "tokenOfOwnerByIndex",
      "outputs": [
        {
          "internalType": "uint256",
          "name": "",
          "type": "uint256"
        }
      ],
      "stateMutability": "view",
      "type": "function"
    },
    {
      "inputs": [
        {
          "internalType": "uint256",
          "name": "tokenId",
          "type": "uint256"
        }
      ],
      "name": "tokenURI",
      "outputs": [
        {
          "internalType": "string",
          "name": "",
          "type": "string"
        }
      ],
      "stateMutability": "view",
      "type": "function"
    },
    {
      "inputs": [],
      "name": "totalSupply",
      "outputs": [
        {
          "internalType": "uint256",
          "name": "",
          "type": "uint256"
        }
      ],
      "stateMutability": "view",
      "type": "function"
    },
    {
      "inputs": [
        {
          "internalType": "address",
          "name": "from",
          "type": "address"
        },
        {
          "internalType": "address",
          "name": "to",
          "type": "address"
        },
        {
          "internalType": "uint256",
          "name": "tokenId",
          "type": "uint256"
        }
      ],
      "name": "transferFrom",
      "outputs": [],
      "stateMutability": "nonpayable",
      "type": "function"
    }
  ],
  "bytecode": "0x608060405234801561001057600080fd5b506040518060400160405280600d81526020017f4d566572204f726967696e616c000000000000000000000000000000000000008152506040518060400160405280600581526020017f4d5645524f000000000000000000000000000000000000000000000000000000815250816000908161008c91906102f4565b50806001908161009c91906102f4565b5050506103c6565b600081519050919050565b7f4e487b7100000000000000000000000000000000000000000000000000000000600052604160045260246000fd5b7f4e487b7100000000000000000000000000000000000000000000000000000000600052602260045260246000fd5b6000600282049050600182168061012557607f821691505b602082108103610138576101376100de565b5b50919050565b60008190508160005260206000209050919050565b60006020601f8301049050919050565b600082821b905092915050565b6000600883026101a07fffffffffffffffffffffffffffffffffffffffffffffffffffffffffffffffff82610163565b6101aa8683610163565b95508019841693508086168417925050509392505050565b6000819050919050565b6000819050919050565b60006101f16101ec6101e7846101c2565b6101cc565b6101c2565b9050919050565b6000819050919050565b61020b836101d6565b61021f610217826101f8565b848454610170565b825550505050565b600090565b610234610227565b61023f818484610202565b505050565b5b818110156102635761025860008261022c565b600181019050610245565b5050565b601f8211156102a8576102798161013e565b61028284610153565b81016020851015610291578190505b6102a561029d85610153565b830182610244565b50505b505050565b600082821c905092915050565b60006102cb600019846008026102ad565b1980831691505092915050565b60006102e483836102ba565b9150826002028217905092915050565b6102fd826100a4565b67ffffffffffffffff811115610316576103156100af565b5b610320825461010d565b61032b828285610267565b600060209050601f83116001811461035e576000841561034c578287015190505b61035685826102d8565b8655506103be565b601f19841661036c8661013e565b60005b828110156103945784890151825560018201915060208501945060208101905061036f565b868310156103b157848901516103ad601f8916826102ba565b8355505b6001600288020188555050505b505050505050565b613501806103d56000396000f3fe608060405234801561001057600080fd5b506004361061014d5760003560e01c80636a480eb8116100c3578063ac446a2d1161007c578063ac446a2d146103e8578063b88d4fde1461041d578063c87b56dd14610439578063d3523ede14610469578063e985e9c514610499578063f074955c146104c95761014d565b80636a480eb8146102ee57806370a082311461031e5780638fb7092c1461034e57806395d89b411461037e578063a209081e1461039c578063a22cb465146103cc5761014d565b806323b872dd1161011557806323b872dd1461020a5780632f745c591461022657806342842e0e146102565780634f6ccce7146102725780635f37cd61146102a25780636352211e146102be5761014d565b806301ffc9a71461015257806306fdde0314610182578063081812fc146101a0578063095ea7b3146101d057806318160ddd146101ec575b600080fd5b61016c6004803603810190610167919061269c565b6104e5565b60405161017991906126e4565b60405180910390f35b61018a6104f7565b604051610197919061278f565b60405180910390f35b6101ba60048036038101906101b591906127e7565b610589565b6040516101c79190612855565b60405180910390f35b6101ea60048036038101906101e5919061289c565b6105a5565b005b6101f46105bb565b60405161020191906128eb565b60405180910390f35b610224600480360381019061021f9190612906565b6105c8565b005b610240600480360381019061023b919061289c565b6106ca565b60405161024d91906128eb565b60405180910390f35b610270600480360381019061026b9190612906565b610773565b005b61028c600480360381019061028791906127e7565b610793565b60405161029991906128eb565b60405180910390f35b6102bc60048036038101906102b791906127e7565b610809565b005b6102d860048036038101906102d391906127e7565b610a1b565b6040516102e59190612855565b60405180910390f35b6103086004803603810190610303919061289c565b610a2d565b60405161031591906128eb565b60405180910390f35b61033860048036038101906103339190612959565b610a5e565b60405161034591906128eb565b60405180910390f35b61036860048036038101906103639190612986565b610b18565b60405161037591906126e4565b60405180910390f35b610386610b80565b604051610393919061278f565b60405180910390f35b6103b660048036038101906103b191906127e7565b610c12565b6040516103c391906128eb565b60405180910390f35b6103e660048036038101906103e191906129f2565b610ca8565b005b61040260048036038101906103fd91906127e7565b610cbe565b60405161041496959493929190612a32565b60405180910390f35b61043760048036038101906104329190612bd6565b610e4a565b005b610453600480360381019061044e91906127e7565b610e6f565b604051610460919061278f565b60405180910390f35b610483600480360381019061047e9190612cfa565b610e81565b60405161049091906128eb565b60405180910390f35b6104b360048036038101906104ae9190612db5565b6110b9565b6040516104c091906126e4565b60405180910390f35b6104e360048036038101906104de91906129f2565b61114d565b005b60006104f08261115b565b9050919050565b60606000805461050690612e24565b80601f016020809104026020016040519081016040528092919081815260200182805461053290612e24565b801561057f5780601f106105545761010080835404028352916020019161057f565b820191906000526020600020905b81548152906001019060200180831161056257829003601f168201915b5050505050905090565b6000610594826111d5565b5061059e8261125d565b9050919050565b6105b782826105b261129a565b6112a2565b5050565b6000600980549050905090565b600073ffffffffffffffffffffffffffffffffffffffff168273ffffffffffffffffffffffffffffffffffffffff160361063a5760006040517f64a0ae920000000000000000000000000000000000000000000000000000000081526004016106319190612855565b60405180910390fd5b600061064e838361064961129a565b6112b4565b90508373ffffffffffffffffffffffffffffffffffffffff168173ffffffffffffffffffffffffffffffffffffffff16146106c4578382826040517f64283d7b0000000000000000000000000000000000000000000000000000000081526004016106bb93929190612e55565b60405180910390fd5b50505050565b60006106d583610a5e565b821061071a5782826040517fa57d13dc000000000000000000000000000000000000000000000000000000008152600401610711929190612e8c565b60405180910390fd5b600760008473ffffffffffffffffffffffffffffffffffffffff1673ffffffffffffffffffffffffffffffffffffffff168152602001908152602001600020600083815260200190815260200160002054905092915050565b61078e83838360405180602001604052806000815250610e4a565b505050565b600061079d6105bb565b82106107e3576000826040517fa57d13dc0000000000000000000000000000000000000000000000000000000081526004016107da929190612e8c565b60405180910390fd5b600982815481106107f7576107f6612eb5565b5b90600052602060002001549050919050565b600073ffffffffffffffffffffffffffffffffffffffff1661082a826112ca565b73ffffffffffffffffffffffffffffffffffffffff1603610880576040517f08c379a000000000000000000000000000000000000000000000000000000000815260040161087790612f30565b60405180910390fd5b600d600082815260200190815260200160002060003373ffffffffffffffffffffffffffffffffffffffff1673ffffffffffffffffffffffffffffffffffffffff16815260200190815260200160002060009054906101000a900460ff161561091e576040517f08c379a000000000000000000000000000000000000000000000000000000000815260040161091590612f9c565b60405180910390fd5b600c6000828152602001908152602001600020600301600081548092919061094590612feb565b91905055506001600d600083815260200190815260200160002060003373ffffffffffffffffffffffffffffffffffffffff1673ffffffffffffffffffffffffffffffffffffffff16815260200190815260200160002060006101000a81548160ff0219169083151502179055503373ffffffffffffffffffffffffffffffffffffffff16817f47206ae22e39c8ecec1df74b7eec36799eb23c1b380fa8b871a75063fb3f881c600c600085815260200190815260200160002060030154604051610a1091906128eb565b60405180910390a350565b6000610a26826111d5565b9050919050565b600e6020528160005260406000208181548110610a4957600080fd5b90600052602060002001600091509150505481565b60008073ffffffffffffffffffffffffffffffffffffffff168273ffffffffffffffffffffffffffffffffffffffff1603610ad15760006040517f89c62b64000000000000000000000000000000000000000000000000000000008152600401610ac89190612855565b60405180910390fd5b600360008373ffffffffffffffffffffffffffffffffffffffff1673ffffffffffffffffffffffffffffffffffffffff168152602001908152602001600020549050919050565b6000600d600084815260200190815260200160002060008373ffffffffffffffffffffffffffffffffffffffff1673ffffffffffffffffffffffffffffffffffffffff16815260200190815260200160002060009054906101000a900460ff16905092915050565b606060018054610b8f90612e24565b80601f0160208091040260200160405190810160405280929190818152602001828054610bbb90612e24565b8015610c085780601f10610bdd57610100808354040283529160200191610c08565b820191906000526020600020905b815481529060010190602001808311610beb57829003601f168201915b5050505050905090565b60008073ffffffffffffffffffffffffffffffffffffffff16610c34836112ca565b73ffffffffffffffffffffffffffffffffffffffff1603610c8a576040517f08c379a0000000000000000000000000000000000000000000000000000000008152600401610c8190612f30565b60405180910390fd5b600c6000838152602001908152602001600020600301549050919050565b610cba610cb361129a565b8383611307565b5050565b600c602052806000526040600020600091509050806000018054610ce190612e24565b80601f0160208091040260200160405190810160405280929190818152602001828054610d0d90612e24565b8015610d5a5780601f10610d2f57610100808354040283529160200191610d5a565b820191906000526020600020905b815481529060010190602001808311610d3d57829003601f168201915b505050505090806001018054610d6f90612e24565b80601f0160208091040260200160405190810160405280929190818152602001828054610d9b90612e24565b8015610de85780601f10610dbd57610100808354040283529160200191610de8565b820191906000526020600020905b815481529060010190602001808311610dcb57829003601f168201915b5050505050908060020154908060030154908060040160009054906101000a900473ffffffffffffffffffffffffffffffffffffffff16908060050160009054906101000a900473ffffffffffffffffffffffffffffffffffffffff16905086565b610e558484846105c8565b610e69610e6061129a565b85858585611476565b50505050565b6060610e7a82611627565b9050919050565b6000600b6000815480929190610e9690612feb565b91905055506000600b549050610eac338261173a565b610eb68185611758565b6040518060c00160405280878152602001868152602001428152602001600081526020018473ffffffffffffffffffffffffffffffffffffffff1681526020013373ffffffffffffffffffffffffffffffffffffffff16815250600c60008381526020019081526020016000206000820151816000019081610f3891906131df565b506020820151816001019081610f4e91906131df565b50604082015181600201556060820151816003015560808201518160040160006101000a81548173ffffffffffffffffffffffffffffffffffffffff021916908373ffffffffffffffffffffffffffffffffffffffff16021790555060a08201518160050160006101000a81548173ffffffffffffffffffffffffffffffffffffffff021916908373ffffffffffffffffffffffffffffffffffffffff160217905550905050600e60003373ffffffffffffffffffffffffffffffffffffffff1673ffffffffffffffffffffffffffffffffffffffff1681526020019081526020016000208190806001815401808255809150506001900390600052602060002001600090919091909150553373ffffffffffffffffffffffffffffffffffffffff16817fff5404a601409915c2f36732d57f5c31483a82aafc475847c5e940baf0f8096f8888876040516110a5939291906132b1565b60405180910390a380915050949350505050565b6000600560008473ffffffffffffffffffffffffffffffffffffffff1673ffffffffffffffffffffffffffffffffffffffff16815260200190815260200160002060008373ffffffffffffffffffffffffffffffffffffffff1673ffffffffffffffffffffffffffffffffffffffff16815260200190815260200160002060009054906101000a900460ff16905092915050565b6111578282610ca8565b5050565b60007f780e9d63000000000000000000000000000000000000000000000000000000007bffffffffffffffffffffffffffffffffffffffffffffffffffffffff1916827bffffffffffffffffffffffffffffffffffffffffffffffffffffffff191614806111ce57506111cd826117b4565b5b9050919050565b6000806111e1836112ca565b9050600073ffffffffffffffffffffffffffffffffffffffff168173ffffffffffffffffffffffffffffffffffffffff160361125457826040517f7e27328900000000000000000000000000000000000000000000000000000000815260040161124b91906128eb565b60405180910390fd5b80915050919050565b60006004600083815260200190815260200160002060009054906101000a900473ffffffffffffffffffffffffffffffffffffffff169050919050565b600033905090565b6112af8383836001611815565b505050565b60006112c18484846119da565b90509392505050565b60006002600083815260200190815260200160002060009054906101000a900473ffffffffffffffffffffffffffffffffffffffff169050919050565b600073ffffffffffffffffffffffffffffffffffffffff168273ffffffffffffffffffffffffffffffffffffffff160361137857816040517f5b08ba1800000000000000000000000000000000000000000000000000000000815260040161136f9190612855565b60405180910390fd5b80600560008573ffffffffffffffffffffffffffffffffffffffff1673ffffffffffffffffffffffffffffffffffffffff16815260200190815260200160002060008473ffffffffffffffffffffffffffffffffffffffff1673ffffffffffffffffffffffffffffffffffffffff16815260200190815260200160002060006101000a81548160ff0219169083151502179055508173ffffffffffffffffffffffffffffffffffffffff168373ffffffffffffffffffffffffffffffffffffffff167f17307eab39ab6107e8899845ad3d59bd9653f200f220920489ca2b5937696c318360405161146991906126e4565b60405180910390a3505050565b60008373ffffffffffffffffffffffffffffffffffffffff163b1115611620578273ffffffffffffffffffffffffffffffffffffffff1663150b7a02868685856040518563ffffffff1660e01b81526004016114d5949392919061334b565b6020604051808303816000875af192505050801561151157506040513d601f19601f8201168201806040525081019061150e91906133ac565b60015b611595573d8060008114611541576040519150601f19603f3d011682016040523d82523d6000602084013e611546565b606091505b50600081510361158d57836040517f64a0ae920000000000000000000000000000000000000000000000000000000081526004016115849190612855565b60405180910390fd5b805181602001fd5b63150b7a0260e01b7bffffffffffffffffffffffffffffffffffffffffffffffffffffffff1916817bffffffffffffffffffffffffffffffffffffffffffffffffffffffff19161461161e57836040517f64a0ae920000000000000000000000000000000000000000000000000000000081526004016116159190612855565b60405180910390fd5b505b5050505050565b6060611632826111d5565b50600060066000848152602001908152602001600020805461165390612e24565b80601f016020809104026020016040519081016040528092919081815260200182805461167f90612e24565b80156116cc5780601f106116a1576101008083540402835291602001916116cc565b820191906000526020600020905b8154815290600101906020018083116116af57829003601f168201915b5050505050905060006116dd611af7565b905060008151036116f2578192505050611735565b60008251111561172757808260405160200161170f929190613415565b60405160208183030381529060405292505050611735565b61173084611b0e565b925050505b919050565b611754828260405180602001604052806000815250611b77565b5050565b8060066000848152602001908152602001600020908161177891906131df565b507ff8e1a15aba9398e019f0b49df1a4fde98ee17ae345cb5f6b5e2c27f5033e8ce7826040516117a891906128eb565b60405180910390a15050565b6000634906490660e01b7bffffffffffffffffffffffffffffffffffffffffffffffffffffffff1916827bffffffffffffffffffffffffffffffffffffffffffffffffffffffff1916148061180e575061180d82611b9b565b5b9050919050565b808061184e5750600073ffffffffffffffffffffffffffffffffffffffff168273ffffffffffffffffffffffffffffffffffffffff1614155b1561198257600061185e846111d5565b9050600073ffffffffffffffffffffffffffffffffffffffff168373ffffffffffffffffffffffffffffffffffffffff16141580156118c957508273ffffffffffffffffffffffffffffffffffffffff168173ffffffffffffffffffffffffffffffffffffffff1614155b80156118dc57506118da81846110b9565b155b1561191e57826040517fa9fbf51f0000000000000000000000000000000000000000000000000000000081526004016119159190612855565b60405180910390fd5b811561198057838573ffffffffffffffffffffffffffffffffffffffff168273ffffffffffffffffffffffffffffffffffffffff167f8c5be1e5ebec7d5bd14f71427d1e84f3dd0314c0f7b2291e5b200ac8c7c3b92560405160405180910390a45b505b836004600085815260200190815260200160002060006101000a81548173ffffffffffffffffffffffffffffffffffffffff021916908373ffffffffffffffffffffffffffffffffffffffff16021790555050505050565b6000806119e8858585611c7d565b9050600073ffffffffffffffffffffffffffffffffffffffff168173ffffffffffffffffffffffffffffffffffffffff1603611a2c57611a2784611e97565b611a6b565b8473ffffffffffffffffffffffffffffffffffffffff168173ffffffffffffffffffffffffffffffffffffffff1614611a6a57611a698185611ee0565b5b5b600073ffffffffffffffffffffffffffffffffffffffff168573ffffffffffffffffffffffffffffffffffffffff1603611aad57611aa884611fcb565b611aec565b8473ffffffffffffffffffffffffffffffffffffffff168173ffffffffffffffffffffffffffffffffffffffff1614611aeb57611aea858561209c565b5b5b809150509392505050565b606060405180602001604052806000815250905090565b6060611b19826111d5565b506000611b24611af7565b90506000815111611b445760405180602001604052806000815250611b6f565b80611b4e84612127565b604051602001611b5f929190613415565b6040516020818303038152906040525b915050919050565b611b8183836121f5565b611b96611b8c61129a565b6000858585611476565b505050565b60007f80ac58cd000000000000000000000000000000000000000000000000000000007bffffffffffffffffffffffffffffffffffffffffffffffffffffffff1916827bffffffffffffffffffffffffffffffffffffffffffffffffffffffff19161480611c6657507f5b5e139f000000000000000000000000000000000000000000000000000000007bffffffffffffffffffffffffffffffffffffffffffffffffffffffff1916827bffffffffffffffffffffffffffffffffffffffffffffffffffffffff1916145b80611c765750611c75826122ee565b5b9050919050565b600080611c89846112ca565b9050600073ffffffffffffffffffffffffffffffffffffffff168373ffffffffffffffffffffffffffffffffffffffff1614611ccb57611cca818486612358565b5b600073ffffffffffffffffffffffffffffffffffffffff168173ffffffffffffffffffffffffffffffffffffffff1614611d5c57611d0d600085600080611815565b6001600360008373ffffffffffffffffffffffffffffffffffffffff1673ffffffffffffffffffffffffffffffffffffffff168152602001908152602001600020600082825403925050819055505b600073ffffffffffffffffffffffffffffffffffffffff168573ffffffffffffffffffffffffffffffffffffffff1614611ddf576001600360008773ffffffffffffffffffffffffffffffffffffffff1673ffffffffffffffffffffffffffffffffffffffff168152602001908152602001600020600082825401925050819055505b846002600086815260200190815260200160002060006101000a81548173ffffffffffffffffffffffffffffffffffffffff021916908373ffffffffffffffffffffffffffffffffffffffff160217905550838573ffffffffffffffffffffffffffffffffffffffff168273ffffffffffffffffffffffffffffffffffffffff167fddf252ad1be2c89b69c2b068fc378daa952ba7f163c4a11628f55a4df523b3ef60405160405180910390a4809150509392505050565b600980549050600a600083815260200190815260200160002081905550600981908060018154018082558091505060019003906000526020600020016000909190919091505550565b6000611eeb83610a5e565b90506000600860008481526020019081526020016000205490506000600760008673ffffffffffffffffffffffffffffffffffffffff1673ffffffffffffffffffffffffffffffffffffffff1681526020019081526020016000209050828214611f975760008160008581526020019081526020016000205490508082600085815260200190815260200160002081905550826008600083815260200190815260200160002081905550505b6008600085815260200190815260200160002060009055806000848152602001908152602001600020600090555050505050565b60006001600980549050611fdf9190613439565b90506000600a600084815260200190815260200160002054905060006009838154811061200f5761200e612eb5565b5b90600052602060002001549050806009838154811061203157612030612eb5565b5b906000526020600020018190555081600a600083815260200190815260200160002081905550600a60008581526020019081526020016000206000905560098054806120805761207f61346d565b5b6001900381819060005260206000200160009055905550505050565b600060016120a984610a5e565b6120b39190613439565b905081600760008573ffffffffffffffffffffffffffffffffffffffff1673ffffffffffffffffffffffffffffffffffffffff168152602001908152602001600020600083815260200190815260200160002081905550806008600084815260200190815260200160002081905550505050565b6060600060016121368461241c565b01905060008167ffffffffffffffff81111561215557612154612aab565b5b6040519080825280601f01601f1916602001820160405280156121875781602001600182028036833780820191505090505b509050600082602001820190505b6001156121ea578080600190039150507f3031323334353637383961626364656600000000000000000000000000000000600a86061a8153600a85816121de576121dd61349c565b5b04945060008503612195575b819350505050919050565b600073ffffffffffffffffffffffffffffffffffffffff168273ffffffffffffffffffffffffffffffffffffffff16036122675760006040517f64a0ae9200000000000000000000000000000000000000000000000000000000815260040161225e9190612855565b60405180910390fd5b6000612275838360006112b4565b9050600073ffffffffffffffffffffffffffffffffffffffff168173ffffffffffffffffffffffffffffffffffffffff16146122e95760006040517f73c6ac6e0000000000000000000000000000000000000000000000000000000081526004016122e09190612855565b60405180910390fd5b505050565b60007f01ffc9a7000000000000000000000000000000000000000000000000000000007bffffffffffffffffffffffffffffffffffffffffffffffffffffffff1916827bffffffffffffffffffffffffffffffffffffffffffffffffffffffff1916149050919050565b61236383838361256f565b61241757600073ffffffffffffffffffffffffffffffffffffffff168373ffffffffffffffffffffffffffffffffffffffff16036123d857806040517f7e2732890000000000000000000000000000000000000000000000000000000081526004016123cf91906128eb565b60405180910390fd5b81816040517f177e802f00000000000000000000000000000000000000000000000000000000815260040161240e929190612e8c565b60405180910390fd5b505050565b600080600090507a184f03e93ff9f4daa797ed6e38ed64bf6a1f010000000000000000831061247a577a184f03e93ff9f4daa797ed6e38ed64bf6a1f01000000000000000083816124705761246f61349c565b5b0492506040810190505b6d04ee2d6d415b85acef810000000083106124b7576d04ee2d6d415b85acef810000000083816124ad576124ac61349c565b5b0492506020810190505b662386f26fc1000083106124e657662386f26fc1000083816124dc576124db61349c565b5b0492506010810190505b6305f5e100831061250f576305f5e10083816125055761250461349c565b5b0492506008810190505b612710831061253457612710838161252a5761252961349c565b5b0492506004810190505b60648310612557576064838161254d5761254c61349c565b5b0492506002810190505b600a8310612566576001810190505b80915050919050565b60008073ffffffffffffffffffffffffffffffffffffffff168373ffffffffffffffffffffffffffffffffffffffff161415801561262757508273ffffffffffffffffffffffffffffffffffffffff168473ffffffffffffffffffffffffffffffffffffffff1614806125e857506125e784846110b9565b5b8061262657508273ffffffffffffffffffffffffffffffffffffffff1661260e8361125d565b73ffffffffffffffffffffffffffffffffffffffff16145b5b90509392505050565b6000604051905090565b600080fd5b600080fd5b60007fffffffff0000000000000000000000000000000000000000000000000000000082169050919050565b61267981612644565b811461268457600080fd5b50565b60008135905061269681612670565b92915050565b6000602082840312156126b2576126b161263a565b5b60006126c084828501612687565b91505092915050565b60008115159050919050565b6126de816126c9565b82525050565b60006020820190506126f960008301846126d5565b92915050565b600081519050919050565b600082825260208201905092915050565b60005b8381101561273957808201518184015260208101905061271e565b60008484015250505050565b6000601f19601f8301169050919050565b6000612761826126ff565b61276b818561270a565b935061277b81856020860161271b565b61278481612745565b840191505092915050565b600060208201905081810360008301526127a98184612756565b905092915050565b6000819050919050565b6127c4816127b1565b81146127cf57600080fd5b50565b6000813590506127e1816127bb565b92915050565b6000602082840312156127fd576127fc61263a565b5b600061280b848285016127d2565b91505092915050565b600073ffffffffffffffffffffffffffffffffffffffff82169050919050565b600061283f82612814565b9050919050565b61284f81612834565b82525050565b600060208201905061286a6000830184612846565b92915050565b61287981612834565b811461288457600080fd5b50565b60008135905061289681612870565b92915050565b600080604083850312156128b3576128b261263a565b5b60006128c185828601612887565b92505060206128d2858286016127d2565b9150509250929050565b6128e5816127b1565b82525050565b600060208201905061290060008301846128dc565b92915050565b60008060006060848603121561291f5761291e61263a565b5b600061292d86828701612887565b935050602061293e86828701612887565b925050604061294f868287016127d2565b9150509250925092565b60006020828403121561296f5761296e61263a565b5b600061297d84828501612887565b91505092915050565b6000806040838503121561299d5761299c61263a565b5b60006129ab858286016127d2565b92505060206129bc85828601612887565b9150509250929050565b6129cf816126c9565b81146129da57600080fd5b50565b6000813590506129ec816129c6565b92915050565b60008060408385031215612a0957612a0861263a565b5b6000612a1785828601612887565b9250506020612a28858286016129dd565b9150509250929050565b600060c0820190508181036000830152612a4c8189612756565b90508181036020830152612a608188612756565b9050612a6f60408301876128dc565b612a7c60608301866128dc565b612a896080830185612846565b612a9660a0830184612846565b979650505050505050565b600080fd5b600080fd5b7f4e487b7100000000000000000000000000000000000000000000000000000000600052604160045260246000fd5b612ae382612745565b810181811067ffffffffffffffff82111715612b0257612b01612aab565b5b80604052505050565b6000612b15612630565b9050612b218282612ada565b919050565b600067ffffffffffffffff821115612b4157612b40612aab565b5b612b4a82612745565b9050602081019050919050565b82818337600083830152505050565b6000612b79612b7484612b26565b612b0b565b905082815260208101848484011115612b9557612b94612aa6565b5b612ba0848285612b57565b509392505050565b600082601f830112612bbd57612bbc612aa1565b5b8135612bcd848260208601612b66565b91505092915050565b60008060008060808587031215612bf057612bef61263a565b5b6000612bfe87828801612887565b9450506020612c0f87828801612887565b9350506040612c20878288016127d2565b925050606085013567ffffffffffffffff811115612c4157612c4061263f565b5b612c4d87828801612ba8565b91505092959194509250565b600067ffffffffffffffff821115612c7457612c73612aab565b5b612c7d82612745565b9050602081019050919050565b6000612c9d612c9884612c59565b612b0b565b905082815260208101848484011115612cb957612cb8612aa6565b5b612cc4848285612b57565b509392505050565b600082601f830112612ce157612ce0612aa1565b5b8135612cf1848260208601612c8a565b91505092915050565b60008060008060808587031215612d1457612d1361263a565b5b600085013567ffffffffffffffff811115612d3257612d3161263f565b5b612d3e87828801612ccc565b945050602085013567ffffffffffffffff811115612d5f57612d5e61263f565b5b612d6b87828801612ccc565b935050604085013567ffffffffffffffff811115612d8c57612d8b61263f565b5b612d9887828801612ccc565b9250506060612da987828801612887565b91505092959194509250565b60008060408385031215612dcc57612dcb61263a565b5b6000612dda85828601612887565b9250506020612deb85828601612887565b9150509250929050565b7f4e487b7100000000000000000000000000000000000000000000000000000000600052602260045260246000fd5b60006002820490506001821680612e3c57607f821691505b602082108103612e4f57612e4e612df5565b5b50919050565b6000606082019050612e6a6000830186612846565b612e7760208301856128dc565b612e846040830184612846565b949350505050565b6000604082019050612ea16000830185612846565b612eae60208301846128dc565b9392505050565b7f4e487b7100000000000000000000000000000000000000000000000000000000600052603260045260246000fd5b7f436f6e74656e7420646f65736e27742065786973740000000000000000000000600082015250565b6000612f1a60158361270a565b9150612f2582612ee4565b602082019050919050565b60006020820190508181036000830152612f4981612f0d565b9050919050565b7f416c7265616479206c696b656400000000000000000000000000000000000000600082015250565b6000612f86600d8361270a565b9150612f9182612f50565b602082019050919050565b60006020820190508181036000830152612fb581612f79565b9050919050565b7f4e487b7100000000000000000000000000000000000000000000000000000000600052601160045260246000fd5b6000612ff6826127b1565b91507fffffffffffffffffffffffffffffffffffffffffffffffffffffffffffffffff820361302857613027612fbc565b5b600182019050919050565b60008190508160005260206000209050919050565b60006020601f8301049050919050565b600082821b905092915050565b6000600883026130957fffffffffffffffffffffffffffffffffffffffffffffffffffffffffffffffff82613058565b61309f8683613058565b95508019841693508086168417925050509392505050565b6000819050919050565b60006130dc6130d76130d2846127b1565b6130b7565b6127b1565b9050919050565b6000819050919050565b6130f6836130c1565b61310a613102826130e3565b848454613065565b825550505050565b600090565b61311f613112565b61312a8184846130ed565b505050565b5b8181101561314e57613143600082613117565b600181019050613130565b5050565b601f8211156131935761316481613033565b61316d84613048565b8101602085101561317c578190505b61319061318885613048565b83018261312f565b50505b505050565b600082821c905092915050565b60006131b660001984600802613198565b1980831691505092915050565b60006131cf83836131a5565b9150826002028217905092915050565b6131e8826126ff565b67ffffffffffffffff81111561320157613200612aab565b5b61320b8254612e24565b613216828285613152565b600060209050601f8311600181146132495760008415613237578287015190505b61324185826131c3565b8655506132a9565b601f19841661325786613033565b60005b8281101561327f5784890151825560018201915060208501945060208101905061325a565b8683101561329c5784890151613298601f8916826131a5565b8355505b6001600288020188555050505b505050505050565b600060608201905081810360008301526132cb8186612756565b905081810360208301526132df8185612756565b90506132ee6040830184612846565b949350505050565b600081519050919050565b600082825260208201905092915050565b600061331d826132f6565b6133278185613301565b935061333781856020860161271b565b61334081612745565b840191505092915050565b60006080820190506133606000830187612846565b61336d6020830186612846565b61337a60408301856128dc565b818103606083015261338c8184613312565b905095945050505050565b6000815190506133a681612670565b92915050565b6000602082840312156133c2576133c161263a565b5b60006133d084828501613397565b91505092915050565b600081905092915050565b60006133ef826126ff565b6133f981856133d9565b935061340981856020860161271b565b80840191505092915050565b600061342182856133e4565b915061342d82846133e4565b91508190509392505050565b6000613444826127b1565b915061344f836127b1565b925082820390508181111561346757613466612fbc565b5b92915050565b7f4e487b7100000000000000000000000000000000000000000000000000000000600052603160045260246000fd5b7f4e487b7100000000000000000000000000000000000000000000000000000000600052601260045260246000fdfea264697066735822122000998cd01c96e4d767fae4606a5e7c2ba759e491d74f4f3bd9d3f3a2b027aa6364736f6c634300081b0033",
  "linkReferences": {},
  "deployedLinkReferences": {}
}